:100000000C9472000C9494000C9494000C94940042
:100010000C9494000C9494000C9494000C94940010
:100020000C9494000C9494000C9494000C94940000
:100030000C9494000C9494000C9494000C949400F0
:100040000C9494000C9494000C9494000C949400E0
:100050000C9494000C9494000C9494000C949400D0
:100060000C9494000C9494000C9494000C949600BE
:100070000C9494000C9494000C9494000C949400B0
:100080000C9494000C9494000C9494000C949400A0
:100090000C9494000C9494000C9494000C94940090
:1000A0000C9494000C9494000C9494000C94940080
:1000B0000C9494000C9494000C9494000C94940070
:1000C0000C9494000C9494000C9494000C94940060
:1000D0000C9494000C9494000C9494000C94940050
:1000E0000C94940011241FBECFEFD1E2DEBFCDBF30
:1000F00000E00CBF12E0A0E0B2E0E6E5F2E000E0D4
:100100000BBF02C007900D92AA33B107D9F71BBEEF
:1001100012E0AAE3B2E001C01D92AC37B107E1F7EB
:100120000E940A010C9429010C9400001F920F9266
:100130000FB60F920BB60F9211242F938F939F93AC
:10014000EF93FF93E0913A02F0913B02E45CFD4FA4
:100150002081222339F481E090E09093380280934B
:10016000370216C02A3049F4E0913A02F0913B027E
:10017000E45CFD4F8DE0808309C080913A0290914C
:100180003B02019690933B0280933A022093C60073
:10019000FF91EF919F918F912F910F900BBE0F9038
:1001A0000FBE0F901F9018951092C50087E08093A6
:1001B000C400E0ECF0E0808182608083E1ECF0E05C
:1001C0008081886080838081806480830895BC0101
:1001D00080913702909138020097D1F31092380243
:1001E000109237028CE392E00E94220110923B02AF
:1001F00010923A0280913A0290913B02FC01E45C39
:10020000FD4F2081019690933B0280933A02209308
:10021000C60008950E94D4007894CAE0D0E080E03F
:1002200092E00E94E7008EE092E00E94E7008DE1FC
:1002300092E00E94E700219791F78DE292E00E9400
:10024000E700FFCFFB01DC0101900D920020E1F7F8
:060250000895F894FFCFB1
:1002560049206C6F766520796F752E200A00596FDC
:1002660075206C6F7665206D652E200A0048652026
:100276006C6F766573206865722E200A00456E6481
:0A02860020212121200A00010000C0
:00000001FF
