:100000000C9472000C9494000C9494000C94940042
:100010000C9494000C9494000C9494000C94940010
:100020000C9494000C9494000C9494000C94940000
:100030000C9494000C9494000C9494000C949400F0
:100040000C9494000C9494000C9494000C949400E0
:100050000C9494000C9494000C9494000C949400D0
:100060000C9494000C9494000C9494000C949400C0
:100070000C9494000C9494000C9494000C949400B0
:100080000C9494000C9494000C9494000C949400A0
:100090000C9494000C9494000C9494000C94940090
:1000A0000C9494000C9494000C9494000C94940080
:1000B0000C9494000C9494000C9494000C94940070
:1000C0000C9494000C9494000C9494000C94940060
:1000D0000C9494000C9494000C9494000C94940050
:1000E0000C94940011241FBECFEFD1E2DEBFCDBF30
:1000F00000E00CBF12E0A0E0B2E0E8ECF1E000E0CC
:100100000BBF02C007900D92A030B107D9F71BBEFC
:1001100012E0A0E0B2E001C01D92A130B107E1F70A
:100120000E94CC000C94E2000C9400008FEF8093AE
:100130000B0180930A01089510920B0110920002A6
:1001400008958FEF80930B0180930002089521E0C2
:1001500030E002C0220F331F8A95E2F7209580918C
:10016000000228232093000220930B01089521E030
:1001700030E002C0220F331F8A95E2F7809100021F
:10018000822B8093000280930B01089580958093C9
:10019000000280930B0108950E949600C0E08C2F0E
:1001A0000E94A7008FEF9FE5A3E081509040A04000
:1001B000E1F700C000008C2F0E94B700CF5FC8306D
:0801C00068F7EDCFF894FFCFC2
:00000001FF
