:100000000C9472000C9494000C9494000C94940042
:100010000C9494000C9494000C9494000C94940010
:100020000C9494000C9494000C9494000C94940000
:100030000C9494000C9494000C9494000C949400F0
:100040000C9494000C9494000C9494000C949400E0
:100050000C9494000C9494000C9494000C949400D0
:100060000C9494000C9494000C9494000C949600BE
:100070000C9494000C9494000C9494000C949400B0
:100080000C9494000C9494000C9494000C949400A0
:100090000C9494000C9494000C9494000C94940090
:1000A0000C9494000C9494000C9494000C94940080
:1000B0000C9494000C9494000C9494000C94940070
:1000C0000C9494000C9494000C9494000C94940060
:1000D0000C9494000C9494000C9494000C94940050
:1000E0000C94940011241FBECFEFD1E2DEBFCDBF30
:1000F00000E00CBF12E0A0E0B2E0E0EEF2E000E0D1
:100100000BBF02C007900D92AA33B107D9F71BBEEF
:1001100012E0AAE3B2E001C01D92AC37B107E1F7EB
:100120000E9444010C946E010C9400001F920F92E7
:100130000FB60F920BB60F9211242F938F939F93AC
:10014000EF93FF93E0913A02F0913B02E45CFD4FA4
:100150002081222369F410923C0210923B021092FB
:100160003A0281E090E0909338028093370216C003
:100170002A3049F4E0913A02F0913B02E45CFD4FF1
:100180008DE0808309C080913A0290913B020196F4
:1001900090933B0280933A022093C600FF91EF9127
:1001A0009F918F912F910F900BBE0F900FBE0F90CC
:1001B0001F9018951092C50087E08093C400E0EC72
:1001C000F0E0808182608083E1ECF0E080818860F3
:1001D000808380818064808308950F931F93CF93E1
:1001E000DF93182F092FE82FF92FEF010990002036
:1001F000E9F72197CE1BDF0B2FE330E0A0913A0205
:10020000B0913B02A45CBD4FFD0101900020E9F7D5
:100210003197EA1BFB0BC9018E1B9F0B8C179D07A7
:1002200068F360913A0270913B02645C7D4F8CE30D
:1002300092E00E9467018CE392E0612F702F0E9490
:100240005C0110923B0210923A0280913702909129
:100250003802009799F0109238021092370280917C
:100260003A0290913B02FC01E45CFD4F2081019633
:1002700090933B0280933A022093C6007894DF91DA
:10028000CF911F910F9108950E94DA007894CAE0EF
:10029000D0E080E092E00E94ED008EE092E00E94CB
:1002A000ED008DE192E00E94ED00219791F78DE243
:1002B00092E00E94ED00FFCFFB01DC010D900020D9
:1002C000E9F7119701900D920020E1F70895FB01E5
:1002D000DC0101900D920020E1F70895F894FFCF22
:1002E00049206C6F766520796F752E200A00596F52
:1002F00075206C6F7665206D652E200A004865209C
:100300006C6F766573206865722E200A00456E64F6
:0A03100020212121200A0001000035
:00000001FF
