:100000000C9472000C9494000C9494000C94940042
:100010000C9494000C9494000C9494000C94940010
:100020000C9494000C9494000C9494000C94940000
:100030000C9494000C9494000C9494000C949400F0
:100040000C9494000C9494000C9494000C949400E0
:100050000C9494000C9494000C9494000C949400D0
:100060000C9494000C94FB010C9494000C94CC011F
:100070000C9494000C9494000C9494000C949400B0
:100080000C9494000C9494000C9494000C949400A0
:100090000C9494000C9494000C9494000C94940090
:1000A0000C9494000C9494000C9494000C94940080
:1000B0000C9494000C9494000C9494000C94940070
:1000C0000C9494000C9494000C9494000C94940060
:1000D0000C9494000C9494000C9494000C94940050
:1000E0000C94940011241FBECFEFD1E2DEBFCDBF30
:1000F00000E00CBF12E0A0E0B2E0EAE0F2E100E0D4
:100100000BBF02C007900D92AA39B107D9F71BBEE9
:1001100013E0AAE9B2E001C01D92A133B107E1F7F3
:100120000E9498030C9403090C94000084E090E072
:100130000E94170408950E94AD040895FC01809167
:100140009A0290919B02009739F4F0939B02E093FE
:100150009A0213821282089593838283F0939B0202
:10016000E0939A020895E0919A02F0919B023097F1
:1001700031F490939B0280939A0208C0F901228186
:10018000338121153105D1F793838283FC011382DA
:1001900012820895CF93DF93FC0120919A0230914F
:1001A0009B022115310531F040815181D901C0E018
:1001B000D0E00FC090939B0280939A021382128228
:1001C0001DC012968D919C911397ED01009739F007
:1001D000DC018D919C9111978417950794F32097DA
:1001E00039F433832283F0939B02E0939A0206C092
:1001F0008A819B8193838283FB83EA83DF91CF9102
:100200000895CF93DF93FC0120919A0230919B02D5
:100210002115310531F040815181D901C0E0D0E094
:100220000FC090939B0280939A02138212821DC08A
:1002300012968D919C911397ED01009739F0DC0196
:100240008D919C9111974817590794F3209739F491
:1002500033832283F0939B02E0939A0206C08A8143
:100260009B8193838283FB83EA83DF91CF910895FF
:100270000F931F93CF93DF938AE090E00E94E705EE
:10028000C0919A02D0919B0200E012E013C000D00E
:100290000F92EDB7FEB71283018388819981948311
:1002A00083830E94D5050A80DB81C02D0F900F90BB
:1002B0000F900F90209759F78AE090E00E94E70591
:1002C000DF91CF911F910F91089509C0FC01228108
:1002D000338130939B0220939A020E94AD04809157
:1002E0009A0290919B02009789F70895EF92FF92EE
:1002F0001F93CF93DF93CDB7DEB728970FB6F8944F
:10030000DEBF0FBECDBF009719F0FC01108101C008
:1003100011E687E0E82E82E0F82E0F920F92EDB7FB
:10032000FEB7F282E1820E94D5050F900F904091B6
:100330002B0350912C03CE01019668E070E00E94DF
:10034000A1050097C9F00E9496002981FC01208335
:100350001182183629F0143731F0143651F406C0E2
:100360000E949E00DACF0E94B300D7CF0E94010105
:10037000D4CF0E94CA00D1CF0E9438010E946501EB
:1003800028960FB6F894DEBF0FBECDBFDF91CF9198
:100390001F91FF90EF9008951F920F920FB60F924A
:1003A0000BB60F9211242F933F934F935F936F934C
:1003B0007F938F939F93AF93BF93EF93FF930E948D
:1003C000A202882319F41092260302C08093C6006B
:1003D000FF91EF91BF91AF919F918F917F916F911D
:1003E0005F914F913F912F910F900BBE0F900FBED9
:1003F0000F901F9018951F920F920FB60F920BB689
:100400000F9211242F933F934F935F936F937F939A
:100410008F939F93AF93BF93CF93EF93FF93C0912D
:10042000C600C43031F0CD3009F4CAE08C2F0E94F0
:1004300017038C2F0E944102FF91EF91CF91BF9142
:10044000AF919F918F917F916F915F914F913F916C
:100450002F910F900BBE0F900FBE0F901F9018950D
:100460001092E3021092E2021092E1021092E00276
:100470001092E5021092E40210929F0210929E02E6
:100480000895482F2091E4023091E5022F5F3F4FFD
:10049000C90160E470E00E94F0039C0180919E021B
:1004A00090919F022817390759F03093E502209365
:1004B000E4022A513D4FF901408381E090E0089524
:1004C00080E090E0089580919E0290919F0220919B
:1004D000E4023091E5022817390779F0019660E4CB
:1004E00070E00E94F00390939F0280939E028A51D5
:1004F0009D4FFC01808190E0089580E090E0089598
:10050000482F2091E2023091E3022F5F3F4FC90153
:1005100060E470E00E94F0039C018091E002909101
:10052000E1022817390759F03093E3022093E202E1
:1005300020563D4FF901408381E090E0089580E02E
:1005400090E008958091E0029091E1022091E20212
:100550003091E3022817390779F0019660E470E0E2
:100560000E94F0039093E1028093E00280569D4F39
:10057000FC01808190E0089580E090E00895F89477
:100580000E94630278948823D1F3843011F090E0C4
:1005900008958FEF9FEF0895CF93C82F8A3019F4F5
:1005A0008DE00E94CC02F89480912603882361F4A8
:1005B000C093C60081E0809326030BC0789488E145
:1005C0008A95F1F700C0F8948C2F0E948002009762
:1005D000A9F3789481E090E0CF91089580E592E0CE
:1005E00090932C0380932B038EE592E090932E033F
:1005F00080932D030E943002109226031092C500B2
:1006000087E08093C400E0ECF0E08081826080832A
:10061000E1ECF0E080818860808380818064808369
:100620008081806180838081806880830895CF93FA
:10063000C82F8A3019F48DE00E9417038091260399
:10064000882331F4C093C60081E08093260303C061
:100650008C2F0E948002CF910895CF93DF93FC01ED
:1006600062E070E00E94F003EB0122E030E008C09D
:10067000CF01B9010E94F003009741F02F5F3F4F77
:10068000C217D307ACF781E090E002C080E090E0B1
:10069000DF91CF910895CF92DF92EF92FF920F9367
:1006A0001F93CF93DF93009721F00E9446057C01B2
:1006B00004C090EDE92E97E0F92EC2E0D0E000E012
:1006C00010E08CE6C82E82E0D82E16C0CE010E9423
:1006D0002D03009781F00F5F1F4F00D00F92EDB7F1
:1006E000FEB7D282C182D483C3830E94D5050F9006
:1006F0000F900F900F902196EC16FD063CF700D05E
:100700000F9287E892E0EDB7FEB79283818314835E
:1007100003830E94D5050F900F900F900F90DF91EB
:10072000CF911F910F91FF90EF90DF90CF900895A0
:10073000CF93DF93CDB7DEB7C058D0400FB6F89453
:10074000DEBF0FBECDBF0E94EE0278948BE0C82EB4
:1007500082E0D82E0F920F92EDB7FEB7D282C182FF
:100760000E94D5050F900F9040912B0350912C03C0
:10077000CE01019660E870E00E94A105009759F152
:10078000CE0101966EE072E00E9464058C01009734
:1007900009F380E090E066E172E00E9464057C016C
:1007A000C8016CE172E00E946905009721F4C7015D
:1007B0000E944B03CFCFC80162E272E00E9469053C
:1007C000009721F4C7010E947601C4CF87E292E02E
:1007D0000E94EE05BFCF8BE392E00E94EE05FFCFB3
:1007E00097FB092E07260AD077FD04D00CD006D03F
:1007F00000201AF4709561957F4F0895F6F7909553
:1008000081959F4F0895AA1BBB1B51E107C0AA1FEA
:10081000BB1FA617B70710F0A61BB70B881F991FA1
:100820005A95A9F780959095BC01CD010895CF9375
:10083000DF93AC018230910510F442E050E0E0918A
:100840002903F0912A0320E030E0A0E0B0E024C0CA
:100850008081918184179507D0F08417950771F4F2
:1008600082819381109729F013969C938E9312970F
:100870002CC090932A038093290327C021153105AA
:1008800019F08217930718F49C01BD01EF019281C2
:100890008381DF01E92FF82F3097D1F6211531053B
:1008A000F9F0C901841B950B8430910580F48A818D
:1008B0009B816115710521F0FB019383828304C044
:1008C00090932A0380932903FE01329642C0FE01D1
:1008D000E80FF91F4193519302979983888339C098
:1008E0008091270390912803009741F4809196020C
:1008F000909197029093280380932703209194026C
:10090000309195022115310541F42DB73EB7809104
:10091000980290919902281B390BE0912703F091DE
:100920002803E217F30798F42E1B3F0B2417350713
:1009300070F0CA0102962817390748F08E0F9F1FE2
:1009400090932803809327034193519302C0E0E0E2
:10095000F0E0CF01DF91CF9108950F931F93CF93D4
:10096000DF939C01009709F48CC0DC011297139669
:100970001C921E9212976091290370912A036115AF
:10098000710589F48D919C911197820F931F20918D
:100990002703309128032817390769F5B0932803F6
:1009A000A09327036EC0FB0140E050E001C0FC01B2
:1009B000EA17FB0730F482819381AF010097B9F702
:1009C0001FC0E9012297FB83EA8308811981C901CD
:1009D000800F911F8E179F0759F480819181800F9E
:1009E000911F029699838883828193819B838A8356
:1009F0004115510529F4B0932A03A093290341C05E
:100A0000FA01B383A283C191D191EC0FFD1FAE1700
:100A1000BF0781F4F901929182918C0F9D1F02967C
:100A2000DA0111969C938E938281938113969C9305
:100A30008E931297E0E0F0E002C0FB01BC01DB0105
:100A400012968D919C9113970097B9F7CB0102965E
:100A50002D913C911197820F931F20912703309184
:100A600028032817390769F4309729F410922A03CC
:100A70001092290302C0138212827093280360939C
:100A80002703DF91CF911F910F910895FC018827D3
:100A90009927E89421912032E9F3293010F02E3083
:100AA000C8F32B3241F02D3239F4689404C00E940F
:100AB0009905820F911D219120532A30C0F31EF415
:100AC000909581959F4F08954CE952E00E947205E0
:100AD0000895FB01DC018D91019080190110D9F37B
:100AE000990B0895FA01A191B081009719F410971C
:100AF000E1F0CD01DC01CD010D90002011F4C00129
:100B000013C0FB012191222319F02015D9F7F3CF4F
:100B1000FB012191201519F41E92119606C0222383
:100B2000C1F70D900020A1F7D001FA01A193B08385
:100B300008957AE0979F902D879F802D910D112425
:100B40000895CF92DF92EF92FF920F931F93CF936E
:100B5000DF938C016A01FA01838180FF1AC01616A7
:100B60001706BCF47B01E8010EC0C6010E943908DB
:100B7000FFEF8F3F9F0769F089930894E108F10820
:100B80008A30910521F021E0E216F10471F7188214
:100B900002C000E010E0C801DF91CF911F910F91DA
:100BA000FF90EF90DF90CF900895CF93DF93CDB774
:100BB000DEB7FE0136966191719180912D0390917F
:100BC0002E03AF010E941C06DF91CF910895609122
:100BD0002D0370912E030E94790808950F931F939F
:100BE000CF93DF938C01E0912D03F0912E0383814D
:100BF00081FF1AC0C0E0D0E005C01995009711F040
:100C0000CFEFDFEFF80181918F0160912D0370919B
:100C10002E03DB011896ED91FC911997882369F753
:100C20008AE01995009711F0CFEFDFEFCE01DF9149
:100C3000CF911F910F9108952F923F924F925F9203
:100C40006F927F928F929F92AF92BF92CF92DF92DC
:100C5000EF92FF920F931F93CF93DF93CDB7DEB741
:100C60002D970FB6F894DEBF0FBECDBF3C017D8738
:100C70006C875A01FC0117821682838181FFC8C1EB
:100C80002E010894411C511CF3019381EC85FD85D4
:100C900093FD859193FF8191FD87EC87882309F46B
:100CA000B3C1853241F493FD859193FF8191FD8716
:100CB000EC87853229F490E0B3010E947908E4CFF3
:100CC000FF24EE2410E01032B0F48B3269F08C3245
:100CD00028F4803251F0833271F40BC08D3239F038
:100CE000803349F411602CC01260146029C0186070
:100CF00027C0106125C017FD2EC0282F20532A3091
:100D000098F416FF08C08F2D880FF82EFF0CFF0CEB
:100D1000F80EF20E15C08E2D880FE82EEE0CEE0C9C
:100D2000E80EE20E10620CC08E3221F416FD6CC18A
:100D3000106406C08C3611F4106802C0883659F46D
:100D4000EC85FD8593FD859193FF8191FD87EC876F
:100D5000882309F0B8CF982F9554933018F090520B
:100D6000933038F424E030E0A20EB31E3FE3398321
:100D70000FC0833631F0833781F0833509F05AC0D4
:100D800022C0F5018081898322E030E0A20EB31EEB
:100D900021E0C22ED12C420114C092E0292E312C28
:100DA0002A0C3B1CF5018080918016FF03C06F2D3B
:100DB00070E002C06FEF7FEFC4010E942E086C014B
:100DC00051011F7715C082E0282E312C2A0C3B1CC4
:100DD000F5018080918016FF03C06F2D70E002C086
:100DE0006FEF7FEFC4010E9423086C01106851016E
:100DF00013FD1CC006C080E290E0B3010E94790898
:100E0000EA948E2D90E0C816D906A8F30FC0F4011D
:100E100017FD859117FF81914F0190E0B3010E946A
:100E20007908E110EA940894C108D108C114D104EA
:100E300071F7E7C0843611F0893651F5F50117FFD7
:100E400007C080819181A281B38124E030E008C095
:100E500080819181AA2797FDA095BA2F22E030E0EA
:100E6000A20EB31E012F0F76B7FF08C0B095A09554
:100E7000909581959F4FAF4FBF4F0068BC01CD014A
:100E8000A2012AE030E00E94A508D82ED4183FC065
:100E9000853721F41F7E2AE030E020C0197F8F368D
:100EA000A9F0803720F4883509F0AEC00BC0803738
:100EB00021F0883709F0A8C001C0106114FF09C0F3
:100EC000146007C014FF08C0166006C028E030E0B8
:100ED00005C020E130E002C020E132E0F50117FF5B
:100EE00007C0608171818281938144E050E006C037
:100EF0006081718180E090E042E050E0A40EB51E78
:100F0000A2010E94A508D82ED418012F0F7706FF42
:100F100009C00E7FDF1430F404FF06C002FD04C0D8
:100F20000F7E02C01D2D01C01F2D802F90E004FFF9
:100F30000CC0FE01ED0DF11D2081203311F4097E5E
:100F400009C002FF06C01E5F05C08678907000973A
:100F500009F01F5F802E992403FD12C000FF0DC011
:100F6000FD2C1E1550F4FE0CF11A1E2D06C080E259
:100F700090E0B3010E9479081F5F1E15C0F304C002
:100F80001E1510F4E11A01C0EE2484FE0FC080E3A8
:100F900090E0B3010E94790882FE1FC081FE03C069
:100FA00088E590E010C088E790E00DC0C401867825
:100FB0009070009791F081FC02C080E201C08BE24A
:100FC00007FD8DE290E0B3010E94790806C080E33E
:100FD00090E0B3010E947908FA94DF14C0F3DA9428
:100FE000F201ED0DF11D808190E0B3010E947908BE
:100FF000DD20A9F706C080E290E0B3010E947908E5
:10100000EA94EE20C1F740CEF3018681978102C0B9
:101010008FEF9FEF2D960FB6F894DEBF0FBECDBFBA
:10102000DF91CF911F910F91FF90EF90DF90CF90C4
:10103000BF90AF909F908F907F906F905F904F90F8
:101040003F902F900895FC01059061507040011071
:10105000D8F7809590958E0F9F1F0895FC016150E1
:10106000704001900110D8F7809590958E0F9F1FCA
:101070000895CF93DF93EC012B8120FF35C026FF2D
:1010800009C02F7B2B838E819F8101969F838E8346
:101090008A8128C022FF0FC0E881F98180819927C9
:1010A00087FD9095009719F420622B831DC031961F
:1010B000F983E88311C0EA85FB85CE01199597FF76
:1010C0000BC02B813FEF8F3F930711F480E101C0EC
:1010D00080E2822B8B8308C02E813F812F5F3F4FA0
:1010E0003F832E8390E002C08FEF9FEFDF91CF917F
:1010F00008950F931F93CF93DF938C01EB018B81A6
:1011000081FF1BC082FF0DC02E813F818C819D819C
:101110002817390764F4E881F9810193F983E8839A
:1011200006C0E885F985802F1995009731F48E81E6
:101130009F8101969F838E8302C00FEF1FEFC8012E
:10114000DF91CF911F910F910895FA01AA272830BE
:1011500051F1203181F1E8946F936E7F6E5F7F4F84
:101160008F4F9F4FAF4FB1E03ED0B4E03CD0670F00
:10117000781F891F9A1FA11D680F791F8A1F911D53
:10118000A11D6A0F711D811D911DA11D20D009F4A3
:1011900068943F912AE0269F11243019305D3193E5
:1011A000DEF6CF010895462F4770405D4193B3E0CE
:1011B0000FD0C9F7F6CF462F4F70405D4A3318F075
:1011C000495D31FD4052419302D0A9F7EACFB4E026
:1011D000A6959795879577956795BA95C9F70097DE
:1011E0006105710508959B01AC010A2E069457957F
:1011F000479537952795BA95C9F7620F731F841FD6
:0A120000951FA01D0895F894FFCF7C
:10120A002D2D3E25632000203E20002420000A0DBB
:10121A000920202020000A0D092020007072696D23
:10122A0065006C69737400556E6B6E6F776E206320
:10123A006F6D6D616E64202E2E2E006C6F676F7558
:10124A00742C20676F6F6420627965202121210048
:10125A0000000001000000000000BF0200000000C2
:10126A00000200000000CC02000000002564206992
:10127A00732061207072696D652E206E756D6265CE
:10128A0072202121210A00636F756E74203D20258A
:0A129A0064200A0000003103200068
:00000001FF
