:100000000C9472000C9494000C9494000C94940042
:100010000C9494000C9494000C9494000C94940010
:100020000C9494000C9494000C9494000C94940000
:100030000C9494000C9494000C9494000C949400F0
:100040000C9494000C9494000C9494000C949400E0
:100050000C9494000C9494000C9494000C949400D0
:100060000C9494000C9494000C9494000C949600BE
:100070000C9494000C9494000C9494000C949400B0
:100080000C9494000C9494000C9494000C949400A0
:100090000C9494000C9494000C9494000C94940090
:1000A0000C9494000C9494000C9494000C94940080
:1000B0000C9494000C9494000C9494000C94940070
:1000C0000C9494000C9494000C9494000C94940060
:1000D0000C9494000C9494000C9494000C94940050
:1000E0000C94940011241FBECFEFD1E2DEBFCDBF30
:1000F00000E00CBF12E0A0E0B2E0ECEBF2E000E0C8
:100100000BBF02C007900D92A633B107D9F71BBEF3
:1001100012E0A6E3B2E001C01D92A038B107E1F7FA
:100120000E94EE000C945C010C9400001F920F9250
:100130000FB60F920BB60F9211242F938F939F93AC
:10014000EF93FF938091360290913702FC01E65CB9
:10015000FD4F2081222339F481E090E09093390211
:10016000809338020CC02A3019F48DE0808305C0DA
:10017000019690933702809336022093C600FF9138
:10018000EF919F918F912F910F900BBE0F900FBE0B
:100190000F901F9018951092C50087E08093C400BF
:1001A000E0ECF0E0808182608083E1ECF0E080812F
:1001B000886080838081806480830895BC018AE3A5
:1001C00092E00E94270120913A0281E090E0909312
:1001D0003702809336022093C60008950E94CB0018
:1001E00078941092390210923802CAE0D0E080E090
:1001F00092E00E94DE0080913802909139020097CF
:1002000029F110923902109238028EE092E00E9499
:10021000DE0080913802909139020097B1F010927F
:100220003902109238028DE192E00E94DE00809146
:10023000380290913902009739F02197C1F68DE28A
:1002400092E00E942E01FFCFFFCFFFCFFFCFFB0137
:10025000DC0101900D920020E1F708950F931F93A8
:10026000CF93DF938C01E0917C02F0917D0283813A
:1002700081FF1AC0C0E0D0E005C01995009711F0C9
:10028000CFEFDFEFF80181918F0160917C027091D7
:100290007D02DB011896ED91FC911997882369F78F
:1002A0008AE01995009711F0CFEFDFEFCE01DF91D3
:0C02B000CF911F910F910895F894FFCF9B
:1002BC0049206C6F766520796F752E200A00596F76
:1002CC0075206C6F7665206D652E200A00486520C0
:1002DC006C6F766573206865722E200A00456E641B
:0602EC0020212121200069
:00000001FF
