:100000000C9472000C9494000C9494000C94940042
:100010000C9494000C9494000C9494000C94940010
:100020000C9494000C9494000C9494000C94940000
:100030000C9494000C9494000C9494000C949400F0
:100040000C9494000C9494000C9494000C949400E0
:100050000C9494000C9494000C9494000C949400D0
:100060000C9494000C94C1010C9494000C94920193
:100070000C9494000C9494000C9494000C949400B0
:100080000C9494000C9494000C9494000C949400A0
:100090000C9494000C9494000C9494000C94940090
:1000A0000C9494000C9494000C9494000C94940080
:1000B0000C9494000C9494000C9494000C94940070
:1000C0000C9494000C9494000C9494000C94940060
:1000D0000C9494000C9494000C9494000C94940050
:1000E0000C94940011241FBECFEFD1E2DEBFCDBF30
:1000F00000E00CBF12E0A0E0B2E0ECEAFCE000E0BF
:100100000BBF02C007900D92AE37B107D9F71BBEE7
:1001100013E0AEE7B2E001C01D92AF30B107E1F7E6
:100120000E9458020C9454060C9400001092C502D0
:100130001092C4021092C3021092C2021092C7021F
:100140001092C60210928102109280020895482FE8
:100150002091C6023091C7022F5F3F4FC90160E472
:1001600070E00E949D029C0180918002909181022A
:100170002817390759F03093C7022093C602285335
:100180003D4FF901408381E090E0089580E090E0E8
:10019000089580918002909181022091C602309151
:1001A000C7022817390779F0019660E470E00E94D1
:1001B0009D02909381028093800288539D4FFC01A1
:1001C000808190E0089580E090E00895482F20918C
:1001D000C4023091C5022F5F3F4FC90160E470E057
:1001E0000E949D029C018091C2029091C302281737
:1001F000390759F03093C5022093C4022E573D4F62
:10020000F901408381E090E0089580E090E0089556
:100210008091C2029091C3022091C4023091C50224
:100220002817390779F0019660E470E00E949D027A
:100230009093C3028093C2028E579D4FFC01808130
:1002400090E0089580E090E00895F8940E94C9003D
:1002500078948823D1F3843011F090E008958FEFE3
:100260009FEF0895CF93C82F8A3019F48DE00E9434
:100270003201F89480910803882359F4C093C60092
:1002800081E0809308030AC0789486EF8A95F1F79D
:10029000F8948C2F0E94E6000097B1F3789481E0E7
:1002A00090E0CF91089580E092E090930A038093CC
:1002B00009038EE092E090930C0380930B030E945D
:1002C0009600109208031092C50087E08093C40046
:1002D000E0ECF0E0808182608083E1ECF0E08081FE
:1002E0008860808380818064808380818061808356
:1002F0008081806880830895CF93C82F8A3019F455
:100300008DE00E947C0180910803882331F4C09322
:10031000C60081E08093080303C08C2F0E94E60092
:10032000CF9108951F920F920FB60F920BB60F92B6
:1003300011242F933F934F935F936F937F938F93EA
:100340009F93AF93BF93EF93FF930E94080188237D
:1003500019F41092080302C08093C600FF91EF9138
:10036000BF91AF919F918F917F916F915F914F91CD
:100370003F912F910F900BBE0F900FBE0F901F90CB
:1003800018951F920F920FB60F920BB60F92112471
:100390002F933F934F935F936F937F938F939F938D
:1003A000AF93BF93CF93EF93FF93C091C600C43038
:1003B00031F0CD3009F4CAE08C2F0E947C018C2FE3
:1003C0000E94A700FF91EF91CF91BF91AF919F91B4
:1003D0008F917F916F915F914F913F912F910F90EE
:1003E0000BBE0F900FBE0F901F901895CF93DF9309
:1003F000FC0162E070E00E949D02EB0122E030E02F
:1004000008C0CF01B9010E949D02009741F02F5F03
:100410003F4FC217D307ACF781E090E002C080E005
:1004200090E0DF91CF910895CF92DF92EF92FF920B
:100430000F931F93CF93DF937C0100E010E0C2E0A5
:10044000D0E02CE1C22E22E0D22E16C0CE010E94B6
:10045000F601009781F00F5F1F4F00D00F92EDB7AC
:10046000FEB7D282C182D483C3830E942D030F9032
:100470000F900F900F902196EC16FD063CF700D0E0
:100480000F9287E392E0EDB7FEB7928381831483E6
:1004900003830E942D030F900F900F900F90DF9118
:1004A000CF911F910F91FF90EF90DF90CF90089523
:1004B000CF93DF93CDB7DEB7C058D0400FB6F894D6
:1004C000DEBF0FBECDBF0E945301789404E412E05A
:1004D0000F920F92EDB7FEB7128301830E942D0396
:1004E0000F900F904091090350910A03CE0101969D
:1004F00060E870E00E94F9020097D1F0CE01019609
:1005000067E472E00E94C402009711F3CE010196E5
:100510006FE472E00E94C902009729F480ED97E031
:100520000E941402D5CF85E592E00E943F03D0CF10
:1005300089E692E00E943F03FFCF97FB092E072632
:100540000AD077FD04D00CD006D000201AF47095A4
:1005500061957F4F0895F6F7909581959F4F089587
:10056000AA1BBB1B51E107C0AA1FBB1FA617B707D9
:1005700010F0A61BB70B881F991F5A95A9F78095F5
:100580009095BC01CD0108954EE752E00E94D20241
:100590000895FB01DC018D91019080190110D9F3C0
:1005A000990B0895FA01A191B081009719F4109761
:1005B000E1F0CD01DC01CD010D90002011F4C0016E
:1005C00013C0FB012191222319F02015D9F7F3CF95
:1005D000FB012191201519F41E92119606C02223C9
:1005E000C1F70D900020A1F7D001FA01A193B083CB
:1005F0000895CF92DF92EF92FF920F931F93CF93C4
:10060000DF938C016A01FA01838180FF1AC01616FC
:100610001706BCF47B01E8010EC0C6010E948A05E2
:10062000FFEF8F3F9F0769F089930894E108F10875
:100630008A30910521F021E0E216F10471F7188269
:1006400002C000E010E0C801DF91CF911F910F912F
:10065000FF90EF90DF90CF900895CF93DF93CDB7C9
:10066000DEB7FE0136966191719180910B039091F6
:100670000C03AF010E946D03DF91CF9108950F939A
:100680001F93CF93DF938C01E0910B03F0910C0348
:10069000838181FF1AC0C0E0D0E005C019950097A2
:1006A00011F0CFEFDFEFF80181918F0160910B0323
:1006B00070910C03DB011896ED91FC91199788233A
:1006C00069F78AE01995009711F0CFEFDFEFCE01BF
:1006D000DF91CF911F910F9108952F923F924F92EA
:1006E0005F926F927F928F929F92AF92BF92CF92C2
:1006F000DF92EF92FF920F931F93CF93DF93CDB7CB
:10070000DEB72D970FB6F894DEBF0FBECDBF3C010C
:100710007D876C875A01FC0117821682838181FFD5
:10072000C8C12E010894411C511CF3019381EC8532
:10073000FD8593FD859193FF8191FD87EC8788234B
:1007400009F4B3C1853241F493FD859193FF819102
:10075000FD87EC87853229F490E0B3010E94CA0539
:10076000E4CFFF24EE2410E01032B0F48B3269F0B5
:100770008C3228F4803251F0833271F40BC08D3208
:1007800039F0803349F411602CC01260146029C024
:10079000186027C0106125C017FD2EC0282F2053D8
:1007A0002A3098F416FF08C08F2D880FF82EFF0C02
:1007B000FF0CF80EF20E15C08E2D880FE82EEE0CF1
:1007C000EE0CE80EE20E10620CC08E3221F416FD23
:1007D0006CC1106406C08C3611F4106802C08836F3
:1007E00059F4EC85FD8593FD859193FF8191FD87FB
:1007F000EC87882309F0B8CF982F9554933018F0E0
:100800009052933038F424E030E0A20EB31E3FE360
:1008100039830FC0833631F0833781F0833509F097
:100820005AC022C0F5018081898322E030E0A20E07
:10083000B31E21E0C22ED12C420114C092E0292E19
:10084000312C2A0C3B1CF5018080918016FF03C0DF
:100850006F2D70E002C06FEF7FEFC4010E947F0533
:100860006C0151011F7715C082E0282E312C2A0C13
:100870003B1CF5018080918016FF03C06F2D70E056
:1008800002C06FEF7FEFC4010E9474056C01106815
:10089000510113FD1CC006C080E290E0B3010E942C
:1008A000CA05EA948E2D90E0C816D906A8F30FC0A9
:1008B000F40117FD859117FF81914F0190E0B3017D
:1008C0000E94CA05E110EA940894C108D108C11435
:1008D000D10471F7E7C0843611F0893651F5F5017E
:1008E00017FF07C080819181A281B38124E030E0AD
:1008F00008C080819181AA2797FDA095BA2F22E098
:1009000030E0A20EB31E012F0F76B7FF08C0B095DE
:10091000A095909581959F4FAF4FBF4F0068BC0148
:10092000CD01A2012AE030E00E94F605D82ED418AD
:100930003FC0853721F41F7E2AE030E020C0197FB8
:100940008F36A9F0803720F4883509F0AEC00BC08F
:10095000803721F0883709F0A8C001C0106114FF6A
:1009600009C0146007C014FF08C0166006C028E064
:1009700030E005C020E130E002C020E132E0F501C6
:1009800017FF07C0608171818281938144E050E04C
:1009900006C06081718180E090E042E050E0A40EEA
:1009A000B51EA2010E94F605D82ED418012F0F778C
:1009B00006FF09C00E7FDF1430F404FF06C002FDFD
:1009C00004C00F7E02C01D2D01C01F2D802F90E09E
:1009D00004FF0CC0FE01ED0DF11D2081203311F448
:1009E000097E09C002FF06C01E5F05C086789070B0
:1009F000009709F01F5F802E992403FD12C000FFAD
:100A00000DC0FD2C1E1550F4FE0CF11A1E2D06C053
:100A100080E290E0B3010E94CA051F5F1E15C0F37B
:100A200004C01E1510F4E11A01C0EE2484FE0FC0AC
:100A300080E390E0B3010E94CA0582FE1FC081FEE0
:100A400003C088E590E010C088E790E00DC0C401C5
:100A500086789070009791F081FC02C080E201C01E
:100A60008BE207FD8DE290E0B3010E94CA0506C04B
:100A700080E390E0B3010E94CA05FA94DF14C0F34A
:100A8000DA94F201ED0DF11D808190E0B3010E9436
:100A9000CA05DD20A9F706C080E290E0B3010E94FC
:100AA000CA05EA94EE20C1F740CEF3018681978112
:100AB00002C08FEF9FEF2D960FB6F894DEBF0FBEEA
:100AC000CDBFDF91CF911F910F91FF90EF90DF90FD
:100AD000CF90BF90AF909F908F907F906F905F90DE
:100AE0004F903F902F900895FC0105906150704009
:100AF0000110D8F7809590958E0F9F1F0895FC01E7
:100B00006150704001900110D8F7809590958E0F3C
:100B10009F1F0895CF93DF93EC012B8120FF35C0F9
:100B200026FF09C02F7B2B838E819F8101969F8397
:100B30008E838A8128C022FF0FC0E881F9818081DD
:100B4000992787FD9095009719F420622B831DC08B
:100B50003196F983E88311C0EA85FB85CE011995AA
:100B600097FF0BC02B813FEF8F3F930711F480E17C
:100B700001C080E2822B8B8308C02E813F812F5FD2
:100B80003F4F3F832E8390E002C08FEF9FEFDF91B6
:100B9000CF9108950F931F93CF93DF938C01EB01B7
:100BA0008B8181FF1BC082FF0DC02E813F818C8114
:100BB0009D812817390764F4E881F9810193F9834D
:100BC000E88306C0E885F985802F1995009731F4F0
:100BD0008E819F8101969F838E8302C00FEF1FEF4E
:100BE000C801DF91CF911F910F910895FA01AA27B3
:100BF000283051F1203181F1E8946F936E7F6E5F60
:100C00007F4F8F4F9F4FAF4FB1E03ED0B4E03CD00D
:100C1000670F781F891F9A1FA11D680F791F8A1FF0
:100C2000911DA11D6A0F711D811D911DA11D20D057
:100C300009F468943F912AE0269F11243019305D11
:100C40003193DEF6CF010895462F4770405D419302
:100C5000B3E00FD0C9F7F6CF462F4F70405D4A334F
:100C600018F0495D31FD4052419302D0A9F7EACF17
:100C7000B4E0A6959795879577956795BA95C9F746
:100C800000976105710508959B01AC010A2E069439
:100C90005795479537952795BA95C9F7620F731FF2
:0C0CA000841F951FA01D0895F894FFCF3D
:100CAC000000000100000000000025010000000011
:100CBC0000020000000032010000000025642069E1
:100CCC00732061207072696D652E206E756D626582
:100CDC0072202121210A00636F756E74203D20253E
:100CEC0064200A002420000A0D0920202020007016
:100CFC0072696D6500556E6B6E6F776E20636F6DEC
:100D0C006D616E64202E2E2E006C6F676F75742CC7
:0E0D1C0020676F6F642062796520212121001D
:00000001FF
