:100000000C9472000C9494000C9494000C94940042
:100010000C9494000C9494000C9494000C94940010
:100020000C9494000C9494000C9494000C94940000
:100030000C9494000C9494000C9494000C949400F0
:100040000C9494000C9494000C9494000C949400E0
:100050000C9494000C9494000C9494000C949400D0
:100060000C9494000C9494000C9494000C949600BE
:100070000C9494000C9494000C9494000C949400B0
:100080000C9494000C9494000C9494000C949400A0
:100090000C9494000C9494000C9494000C94940090
:1000A0000C9494000C9494000C9494000C94940080
:1000B0000C9494000C9494000C9494000C94940070
:1000C0000C9494000C9494000C9494000C94940060
:1000D0000C9494000C9494000C9494000C94940050
:1000E0000C94940011241FBECFEFD1E2DEBFCDBF30
:1000F00000E00CBF12E0A0E0B2E0E2EEF2E000E0CF
:100100000BBF02C007900D92A633B107D9F71BBEF3
:1001100012E0A6E3B2E001C01D92A038B107E1F7FA
:100120000E9404010C946F010C9400001F920F9226
:100130000FB60F920BB60F9211242F938F939F93AC
:10014000EF93FF93E0913602F0913702E65CFD4FAA
:100150002081222339F481E090E09093390280934A
:10016000380216C02A3049F4E0913602F091370285
:10017000E65CFD4F8DE0808309C08091360290914E
:100180003702019690933702809336022093C6007F
:10019000FF91EF919F918F912F910F900BBE0F9038
:1001A0000FBE0F901F9018951092C50087E08093A6
:1001B000C400E0ECF0E0808182608083E1ECF0E05C
:1001C0008081886080838081806480830895CF935C
:1001D000DF93BC01CAE3D2E0CE010E943A01109243
:1001E0003702109236028091360290913702C80F82
:1001F000D91F28810196909337028093360220936D
:10020000C600DF91CF9108950E94D4007894109297
:10021000390210923802CAE0D0E080E092E00E94F9
:10022000E70080913802909139020097D1F3109243
:100230003902109238028EE092E00E94E70080912D
:100240003802909139020097D1F31092390210923E
:1002500038028DE192E00E94E7008091380290918F
:1002600039020097D1F32197C1F68DE292E00E9406
:100270004101FFCFFB01DC0101900D920020E1F76D
:1002800008950F931F93CF93DF938C01E0917C022D
:10029000F0917D02838181FF1AC0C0E0D0E005C0EB
:1002A0001995009711F0CFEFDFEFF80181918F01E1
:1002B00060917C0270917D02DB011896ED91FC91BA
:1002C0001997882369F78AE01995009711F0CFEF05
:1002D000DFEFCE01DF91CF911F910F910895F89438
:0202E000FFCF4E
:1002E20049206C6F766520796F752E200A00596F50
:1002F20075206C6F7665206D652E200A004865209A
:100302006C6F766573206865722E200A00456E64F4
:0603120020212121200042
:00000001FF
