:100000000C9472000C9494000C9494000C94940042
:100010000C9494000C9494000C9494000C94940010
:100020000C9494000C9494000C9494000C94940000
:100030000C9494000C9494000C9494000C949400F0
:100040000C9494000C9494000C9494000C949400E0
:100050000C9494000C9494000C9494000C949400D0
:100060000C9494000C948A020C9494000C945B02FF
:100070000C9494000C9494000C9494000C949400B0
:100080000C9494000C9494000C9494000C949400A0
:100090000C9494000C9494000C9494000C94940090
:1000A0000C9494000C9494000C9494000C94940080
:1000B0000C9494000C9494000C9494000C94940070
:1000C0000C9494000C9494000C9494000C94940060
:1000D0000C9494000C9494000C9494000C94940050
:1000E0000C94940011241FBECFEFD1E2DEBFCDBF30
:1000F00000E00CBF12E0A0E0B2E0E6E3F4E100E0D3
:100100000BBF02C007900D92A03BB107D9F71BBEF1
:1001100013E0A0EBB2E001C01D92A934B107E1F7F2
:100120000E94A2040C94190A0C9400001092FB0285
:100130001092FA021092F9021092F8021092FD0247
:100140001092FC021092B7021092B6020895482F46
:100150002091FC023091FD022F5F3F4FC90160E406
:1001600070E00E9406059C018091B6029091B70252
:100170002817390759F03093FD022093FC022250D2
:100180003D4FF901408381E090E0089580E090E0E8
:1001900008958091B6029091B7022091FC023091AF
:1001A000FD022817390779F0019660E470E00E949B
:1001B00006059093B7028093B60282509D4FFC01D2
:1001C000808190E0089580E090E00895482F20918C
:1001D000FA023091FB022F5F3F4FC90160E470E0EB
:1001E0000E9406059C018091F8029091F90228175F
:1001F000390759F03093FB022093FA0228543D4FFF
:10020000F901408381E090E0089580E090E0089556
:100210008091F8029091F9022091FA023091FB024C
:100220002817390779F0019660E470E00E9406050E
:100230009093F9028093F80288549D4FFC018081CD
:1002400090E0089580E090E0089584E090E00E94BE
:100250002D0508950E94C3050895FC018091B00208
:100260009091B102009739F4F093B102E093B0029B
:1002700013821282089593838283F093B102E093F4
:10028000B0020895E091B002F091B102309731F4DC
:100290009093B1028093B00208C0F90122813381AA
:1002A00021153105D1F793838283FC0113821282D9
:1002B0000895CF93DF93FC012091B0023091B102F9
:1002C0002115310531F040815181D901C0E0D0E0E4
:1002D0000FC09093B1028093B002138212821DC0AE
:1002E00012968D919C911397ED01009739F0DC01E6
:1002F0008D919C9111978417950794F3209739F469
:1003000033832283F093B102E093B00206C08A8166
:100310009B8193838283FB83EA83DF91CF9108954E
:10032000CF93DF93FC012091B0023091B1022115EF
:10033000310531F040815181D901C0E0D0E00FC0DA
:100340009093B1028093B002138212821DC0129664
:100350008D919C911397ED01009739F0DC018D91FF
:100360009C9111974817590794F3209739F43383D8
:100370002283F093B102E093B00206C08A819B8190
:1003800093838283FB83EA83DF91CF9108950F9358
:100390001F93CF93DF938AE090E00E94FD06C09107
:1003A000B002D091B10200E012E013C000D00F9271
:1003B000EDB7FEB71283018388819981948383838B
:1003C0000E94EB060A80DB81C02D0F900F900F90EA
:1003D0000F90209759F78AE090E00E94FD06DF9188
:1003E000CF911F910F91089509C0FC0122813381A3
:1003F0003093B1022093B0020E94C3058091B002F5
:100400009091B102009789F70895EF92FF921F93A0
:10041000CF93DF93CDB7DEB728970FB6F894DEBF42
:100420000FBECDBF009719F0FC01108101C011E68D
:1004300087E0E82E82E0F82E0F920F92EDB7FEB71C
:10044000F282E1820E94EB060F900F9040914303ED
:1004500050914403CE01019668E070E00E94B70617
:100460000097C9F00E9425012981FC012083118297
:10047000183629F0143731F0143651F406C00E94B2
:100480002D01DACF0E944201D7CF0E949001D4CF34
:100490000E945901D1CF0E94C7010E94F401289601
:1004A0000FB6F894DEBF0FBECDBFDF91CF911F9185
:1004B000FF90EF9008951F920F920FB60F920BB618
:1004C0000F9211242F933F934F935F936F937F93DA
:1004D0008F939F93AF93BF93EF93FF930E94080175
:1004E000882319F410923E0302C08093C600FF9146
:1004F000EF91BF91AF919F918F917F916F915F919C
:100500004F913F912F910F900BBE0F900FBE0F9008
:100510001F9018951F920F920FB60F920BB60F9265
:1005200011242F933F934F935F936F937F938F93F8
:100530009F93AF93BF93CF93EF93FF93C091C60068
:10054000C43031F0CD3009F4CAE08C2F0E94820310
:100550008C2F0E94A700FF91EF91CF91BF91AF9197
:100560009F918F917F916F915F914F913F912F91CB
:100570000F900BBE0F900FBE0F901F901895CF934A
:10058000DF93FC0162E070E00E940605EB0122E0CF
:1005900030E008C0CF01B9010E940605009741F084
:1005A0002F5F3F4FC217D307ACF781E090E002C046
:1005B00080E090E0DF91CF910895CF92DF92EF92AB
:1005C000FF920F931F93CF93DF93009721F00E9428
:1005D0005C067C0104C090EDE92E97E0F92EC2E0A4
:1005E000D0E000E010E08BE0C82E82E0D82E16C0EC
:1005F000CE010E94BF02009781F00F5F1F4F00D015
:100600000F92EDB7FEB7D282C182D483C3830E941A
:10061000EB060F900F900F900F902196EC16FD06B1
:100620003CF700D00F9286E292E0EDB7FEB79283DE
:100630008183148303830E94EB060F900F900F9029
:100640000F90DF91CF911F910F91FF90EF90DF906E
:10065000CF900895F8940E94C90078948823D1F32C
:10066000843011F090E008958FEF9FEF0895CF93BD
:10067000C82F8A3019F48DE00E943703F8948091D6
:100680003E03882361F4C093C60081E080933E035B
:100690000BC0789481E28A95F1F70000F8948C2FD2
:1006A0000E94E6000097A9F3789481E090E0CF9152
:1006B00008958EE792E090934403809343038CE87F
:1006C00092E090934603809345030E949600109217
:1006D0003E031092C50087E08093C400E0ECF0E098
:1006E000808182608083E1ECF0E08081886080839B
:1006F0008081806480838081806180838081806844
:1007000080830895CF93C82F8A3019F48DE00E941A
:10071000820380913E03882331F4C093C60081E0B8
:1007200080933E0303C08C2F0E94E600CF91089572
:100730008EE090E00E942D050895EF92FF920F93B6
:100740001F93CF93DF93F82EE92E8B010E9498031D
:10075000EC01DC011296EF2DFE2D8AE001900D9246
:100760008150E1F719830883E091B202F091B3025E
:10077000309729F4D093B302C093B2022FC040E067
:1007800050E020E030E001C0FD0180819181280F20
:10079000391F2017310734F4A485B585AF011097B0
:1007A00099F701C0DF014115510579F48D919C91B4
:1007B0001197801B910B11969C938E93BD87AC87EC
:1007C000D093B302C093B20224C0109751F4021B1D
:1007D000130B19830883FA01D587C4871D861C86ED
:1007E00018C08D919C911197B901681B790B9801E4
:1007F000261B370B398328838D919C911197821B7F
:10080000930B11969C938E93FA01D587C487BD876D
:10081000AC87DF91CF911F910F91FF90EF900895DA
:10082000EF92FF920F931F93CF93DF938AE090E0B4
:100830000E94FD06C091B202D091B30200E010E028
:100840008AE9E82E82E0F82E20C088819981080F7D
:10085000191F00D000D0EDB7FEB73196ADB7BEB7C7
:100860001296FC92EE9211979383828315830483F0
:100870000E94EB060C84DD85C02D8DB79EB70696D1
:100880000FB6F8949EBF0FBE8DBF2097F1F68AE099
:1008900090E00E94FD06DF91CF911F910F91FF9094
:1008A000EF90089509C0FC01248535853093B3028B
:1008B0002093B2020E94C3058091B2029091B302CC
:1008C000009789F708950F931F93CF93DF93CDB7C8
:1008D000DEB762970FB6F894DEBF0FBECDBF05EA54
:1008E00012E00F920F92EDB7FEB7128301830E94C0
:1008F000EB060F900F904091430350914403CE01BB
:10090000019668E070E00E94B706009761F0CE01A2
:1009100001960E945C06BC01009729F0CE01099661
:100920000E949D03DECF0E9410040E945204629632
:100930000FB6F894DEBF0FBECDBFDF91CF911F91F0
:100940000F910895CF93DF93CDB7DEB7C058D04055
:100950000FB6F894DEBF0FBECDBF0E945903789446
:1009600023E3C22E22E0D22E0F920F92EDB7FEB7F4
:10097000D282C1820E94EB060F900F9040914303F8
:1009800050914403CE01019660E870E00E94B706E2
:100990000097B9F1CE01019666E372E00E947A06F3
:1009A0008C01009709F380E090E06EE372E00E9412
:1009B0007A067C01CE01019664E472E00E947F0613
:1009C000009721F4C7010E94DD02CECFC8016AE47E
:1009D00072E00E947F06009721F4C7010E94050281
:1009E000C3CFC8016FE472E00E947F06009721F434
:1009F000C7010E946304B8CF85E592E00E94040716
:100A0000B3CF89E692E00E940407FFCF97FB092E3F
:100A100007260AD077FD04D00CD006D000201AF4A7
:100A2000709561957F4F0895F6F7909581959F4F4A
:100A30000895AA1BBB1B51E107C0AA1FBB1FA61725
:100A4000B70710F0A61BB70B881F991F5A95A9F777
:100A500080959095BC01CD010895CF93DF93AC01B3
:100A60008230910510F442E050E0E0914103F091B2
:100A7000420320E030E0A0E0B0E024C0808191811A
:100A800084179507D0F08417950771F482819381BC
:100A9000109729F013969C938E9312972CC09093E5
:100AA00042038093410327C02115310519F08217B5
:100AB000930718F49C01BD01EF0192818381DF014E
:100AC000E92FF82F3097D1F621153105F9F0C9013A
:100AD000841B950B8430910580F48A819B8161157C
:100AE000710521F0FB019383828304C0909342033C
:100AF00080934103FE01329642C0FE01E80FF91FC8
:100B00004193519302979983888339C080913F0321
:100B100090914003009741F48091AB029091AC0218
:100B20009093400380933F032091A9023091AA0241
:100B30002115310541F42DB73EB78091AD0290915A
:100B4000AE02281B390BE0913F03F0914003E217FE
:100B5000F30798F42E1B3F0B2417350770F0CA01DA
:100B600002962817390748F08E0F9F1F9093400375
:100B700080933F034193519302C0E0E0F0E0CF0146
:100B8000DF91CF9108950F931F93CF93DF939C0133
:100B9000009709F48CC0DC01129713961C921E92E8
:100BA000129760914103709142036115710589F4B8
:100BB0008D919C911197820F931F20913F0330914B
:100BC00040032817390769F5B0934003A0933F030A
:100BD0006EC0FB0140E050E001C0FC01EA17FB07DA
:100BE00030F482819381AF010097B9F71FC0E9010A
:100BF0002297FB83EA8308811981C901800F911F25
:100C00008E179F0759F480819181800F911F029662
:100C100099838883828193819B838A8341155105BF
:100C200029F4B0934203A093410341C0FA01B38376
:100C3000A283C191D191EC0FFD1FAE17BF0781F4C4
:100C4000F901929182918C0F9D1F0296DA01119603
:100C50009C938E938281938113969C938E9312978B
:100C6000E0E0F0E002C0FB01BC01DB0112968D91D7
:100C70009C9113970097B9F7CB0102962D913C9167
:100C80001197820F931F20913F0330914003281743
:100C9000390769F4309729F4109242031092410306
:100CA00002C0138212827093400360933F03DF916E
:100CB000CF911F910F910895FC0188279927E894FF
:100CC00021912032E9F3293010F02E30C8F32B3275
:100CD00041F02D3239F4689404C00E94AF06820FAF
:100CE000911D219120532A30C0F31EF490958195D7
:100CF0009F4F089544EB52E00E9488060895FB013F
:100D0000DC018D91019080190110D9F3990B0895A0
:100D1000FA01A191B081009719F41097E1F0CD018B
:100D2000DC01CD010D90002011F4C00113C0FB01C6
:100D30002191222319F02015D9F7F3CFFB0121913E
:100D4000201519F41E92119606C02223C1F70D90AA
:100D50000020A1F7D001FA01A193B08308957AE0B1
:100D6000979F902D879F802D910D11240895CF92EC
:100D7000DF92EF92FF920F931F93CF93DF938C013B
:100D80006A01FA01838180FF1AC016161706BCF4A7
:100D90007B01E8010EC0C6010E944F09FFEF8F3FA3
:100DA0009F0769F089930894E108F1088A3091055A
:100DB00021F021E0E216F10471F7188202C000E090
:100DC00010E0C801DF91CF911F910F91FF90EF903C
:100DD000DF90CF900895CF93DF93CDB7DEB7FE01BC
:100DE0003696619171918091450390914603AF01D0
:100DF0000E943207DF91CF91089560914503709171
:100E000046030E948F0908950F931F93CF93DF939A
:100E10008C01E0914503F0914603838181FF1AC064
:100E2000C0E0D0E005C01995009711F0CFEFDFEFDB
:100E3000F80181918F016091450370914603DB01B8
:100E40001896ED91FC911997882369F78AE0199516
:100E5000009711F0CFEFDFEFCE01DF91CF911F911F
:100E60000F9108952F923F924F925F926F927F92CF
:100E70008F929F92AF92BF92CF92DF92EF92FF92AA
:100E80000F931F93CF93DF93CDB7DEB72D970FB698
:100E9000F894DEBF0FBECDBF3C017D876C875A0141
:100EA000FC0117821682838181FFC8C12E0108943C
:100EB000411C511CF3019381EC85FD8593FD8591C7
:100EC00093FF8191FD87EC87882309F4B3C18532B4
:100ED00041F493FD859193FF8191FD87EC878532E5
:100EE00029F490E0B3010E948F09E4CFFF24EE249F
:100EF00010E01032B0F48B3269F08C3228F480327A
:100F000051F0833271F40BC08D3239F0803349F4E3
:100F100011602CC01260146029C0186027C01061D5
:100F200025C017FD2EC0282F20532A3098F416FF15
:100F300008C08F2D880FF82EFF0CFF0CF80EF20E54
:100F400015C08E2D880FE82EEE0CEE0CE80EE20E8A
:100F500010620CC08E3221F416FD6CC1106406C004
:100F60008C3611F4106802C0883659F4EC85FD8582
:100F700093FD859193FF8191FD87EC87882309F08C
:100F8000B8CF982F9554933018F09052933038F48E
:100F900024E030E0A20EB31E3FE339830FC0833656
:100FA00031F0833781F0833509F05AC022C0F50152
:100FB0008081898322E030E0A20EB31E21E0C22EA0
:100FC000D12C420114C092E0292E312C2A0C3B1C5A
:100FD000F5018080918016FF03C06F2D70E002C084
:100FE0006FEF7FEFC4010E9444096C0151011F772C
:100FF00015C082E0282E312C2A0C3B1CF501808084
:10100000918016FF03C06F2D70E002C06FEF7FEF7D
:10101000C4010E9439096C011068510113FD1CC004
:1010200006C080E290E0B3010E948F09EA948E2D01
:1010300090E0C816D906A8F30FC0F40117FD8591FA
:1010400017FF81914F0190E0B3010E948F09E110D9
:10105000EA940894C108D108C114D10471F7E7C01B
:10106000843611F0893651F5F50117FF07C08081EC
:101070009181A281B38124E030E008C08081918118
:10108000AA2797FDA095BA2F22E030E0A20EB31E4A
:10109000012F0F76B7FF08C0B095A0959095819568
:1010A0009F4FAF4FBF4F0068BC01CD01A2012AE0A6
:1010B00030E00E94BB09D82ED4183FC0853721F4F8
:1010C0001F7E2AE030E020C0197F8F36A9F08037DC
:1010D00020F4883509F0AEC00BC0803721F0883786
:1010E00009F0A8C001C0106114FF09C0146007C056
:1010F00014FF08C0166006C028E030E005C020E1FB
:1011000030E002C020E132E0F50117FF07C0608146
:1011100071818281938144E050E006C060817181D9
:1011200080E090E042E050E0A40EB51EA2010E94D3
:10113000BB09D82ED418012F0F7706FF09C00E7FE8
:10114000DF1430F404FF06C002FD04C00F7E02C0AD
:101150001D2D01C01F2D802F90E004FF0CC0FE014B
:10116000ED0DF11D2081203311F4097E09C002FF2D
:1011700006C01E5F05C086789070009709F01F5F5B
:10118000802E992403FD12C000FF0DC0FD2C1E15FA
:1011900050F4FE0CF11A1E2D06C080E290E0B3015F
:1011A0000E948F091F5F1E15C0F304C01E1510F4A6
:1011B000E11A01C0EE2484FE0FC080E390E0B30189
:1011C0000E948F0982FE1FC081FE03C088E590E067
:1011D00010C088E790E00DC0C40186789070009739
:1011E00091F081FC02C080E201C08BE207FD8DE23C
:1011F00090E0B3010E948F0906C080E390E0B30144
:101200000E948F09FA94DF14C0F3DA94F201ED0D15
:10121000F11D808190E0B3010E948F09DD20A9F7C4
:1012200006C080E290E0B3010E948F09EA94EE20AC
:10123000C1F740CEF3018681978102C08FEF9FEF07
:101240002D960FB6F894DEBF0FBECDBFDF91CF91C4
:101250001F910F91FF90EF90DF90CF90BF90AF90D4
:101260009F908F907F906F905F904F903F902F90C6
:101270000895FC010590615070400110D8F78095E9
:1012800090958E0F9F1F0895FC0161507040019052
:101290000110D8F7809590958E0F9F1F0895CF93DA
:1012A000DF93EC012B8120FF35C026FF09C02F7B87
:1012B0002B838E819F8101969F838E838A8128C094
:1012C00022FF0FC0E881F9818081992787FD9095E1
:1012D000009719F420622B831DC03196F983E883AF
:1012E00011C0EA85FB85CE01199597FF0BC02B81B4
:1012F0003FEF8F3F930711F480E101C080E2822B22
:101300008B8308C02E813F812F5F3F4F3F832E8309
:1013100090E002C08FEF9FEFDF91CF9108950F9380
:101320001F93CF93DF938C01EB018B8181FF1BC057
:1013300082FF0DC02E813F818C819D812817390746
:1013400064F4E881F9810193F983E88306C0E885B4
:10135000F985802F1995009731F48E819F81019630
:101360009F838E8302C00FEF1FEFC801DF91CF91E3
:101370001F910F910895FA01AA27283051F12031C9
:1013800081F1E8946F936E7F6E5F7F4F8F4F9F4F19
:10139000AF4FB1E03ED0B4E03CD0670F781F891F5B
:1013A0009A1FA11D680F791F8A1F911DA11D6A0F29
:1013B000711D811D911DA11D20D009F468943F91DC
:1013C0002AE0269F11243019305D3193DEF6CF01DB
:1013D0000895462F4770405D4193B3E00FD0C9F7A1
:1013E000F6CF462F4F70405D4A3318F0495D31FD0E
:1013F0004052419302D0A9F7EACFB4E0A695979561
:10140000879577956795BA95C9F700976105710536
:1014100008959B01AC010A2E069457954795379580
:101420002795BA95C9F7620F731F841F951FA01DDA
:061430000895F894FFCFBF
:101436002D2D3E25632000203E2000256420697363
:101446002061207072696D652E206E756D62657201
:10145600202121210A00636F756E74203D202564CA
:10146600200A002420000A0D0920202020000A0D51
:10147600092020007072696D65006C6973740074D0
:10148600696D657200556E6B6E6F776E20636F6D5A
:101496006D616E64202E2E2E006C6F676F75742C36
:1014A60020676F6F6420627965202121210000008A
:1014B60000010000000000002A03000000000002F6
:1014C600000000003703000000002D2D3E25642893
:1014D60025642920003E3E2000000049032000002C
:00000001FF
