:100000000C9478000C949A000C949A000C949A002A
:100010000C949A000C949A000C949A000C949A00F8
:100020000C949A000C949A000C949A000C949A00E8
:100030000C949A000C949A000C949A000C94270546
:100040000C949A000C949A000C949A000C949A00C8
:100050000C949A000C949A000C949A000C949A00B8
:100060000C949A000C9491050C949A000C9434070B
:100070000C949A000C9463070C949A000C949A00C8
:100080000C949A000C949A000C949A000C949A0088
:100090000C949A000C949A000C949A000C949A0078
:1000A0000C949A000C949A000C949A000C949A0068
:1000B0000C949A000C949A000C949A000C949A0058
:1000C0000C949A000C949A000C949A000C949A0048
:1000D0000C949A000C949A000C949A000C949A0038
:1000E0000C949A006364696E6F70737578585B0046
:1000F00011241FBECFEFD1E2DEBFCDBF00E00CBFA9
:1001000013E0A0E0B2E0EEEFF8E200E00BBF02C0C7
:1001100007900D92A63FB107D9F71BBE15E0A6EFD9
:10012000B3E001C01D92A733B107E1F70E94850B30
:100130000C947D140C94000084E090E00E940F0C5D
:1001400008950E94A50C0895FC018091F6039091FA
:10015000F703009739F4F093F703E093F603138263
:100160001282089593838283F093F703E093F6035A
:100170000895E091F603F091F703309731F49093EE
:10018000F7038093F60308C0F9012281338121151A
:100190003105D1F793838283FC0113821282089583
:1001A000CF93DF93FC012091F6033091F7032115E3
:1001B000310531F040815181D901C0E0D0E00FC05C
:1001C0009093F7038093F603138212821DC0129658
:1001D0008D919C911397ED01009739F0DC018D9181
:1001E0009C9111978417950794F3209739F43383E2
:1001F0002283F093F703E093F60306C08A819B8184
:1002000093838283FB83EA83DF91CF9108950F93D9
:100210001F93CF93DF938AE090E00E940C0EC09171
:10022000F603D091F70300E012E013C000D00F9264
:10023000EDB7FEB71283018388819981948383830C
:100240000E94FA0D0A80DB81C02D0F900F900F9055
:100250000F90209759F78AE090E00E940C0EDF91F2
:10026000CF911F910F91089509C0FC012281338124
:100270003093F7032093F6030E94A50C8091F603B8
:100280009091F703009789F70895EF92FF921F93DB
:10029000CF93DF93CDB7DEB728970FB6F894DEBFC4
:1002A0000FBECDBF009719F0FC01108101C011E60F
:1002B00087E0E82E82E0F82E0F920F92EDB7FEB79E
:1002C000F282E1820E94FA0D0F900F904091310569
:1002D00050913205CE01019668E070E00E94A00DB9
:1002E0000097A1F00E949C002981FC0120831182CB
:1002F000183619F0143739F403C00E94A400DCCF7B
:100300000E94B900D9CF0E94D000D6CF0E94070129
:100310000E94340128960FB6F894DEBF0FBECDBF01
:10032000DF91CF911F91FF90EF900895CF93DF93CE
:10033000FC0162E070E00E94B10BEB0122E030E0D2
:1003400008C0CF01B9010E94B10B009741F02F5FA7
:100350003F4FC217D307ACF781E090E002C080E0C6
:1003600090E0DF91CF910895CF92DF92EF92FF92CC
:100370000F931F93CF93DF93009721F00E943E0DC0
:100380007C0104C090EDE92E97E0F92E00E010E02A
:10039000C2E0D0E08DE0C82E82E0D82E16C0CE019B
:1003A0000E949601009781F00F5F1F4F00D00F92BF
:1003B000EDB7FEB7D282C182D483C3830E94FA0D07
:1003C0000F900F900F900F902196EC16FD063CF7C2
:1003D00000D00F9287E292E0EDB7FEB7928381835F
:1003E000148303830E94FA0D0F900F900F900F90CB
:1003F000DF91CF911F910F91FF90EF90DF90CF9001
:1004000008950F931F93CF93DF93EB010E943E0D4E
:100410008C01CE010E943E0D00D00F9221E332E00C
:10042000EDB7FEB732832183080F191F14830383AE
:100430000E94FA0D0F900F900F900F908AE090E0BD
:100440000E940C0EDF91CF911F910F910895CF93D1
:10045000DF9300D00F920F92CDB7DEB72DB73EB726
:100460002A5030400FB6F8943EBF0FBE2DBFEDB7F7
:10047000FEB73196ADB7BEB712969C938E93119787
:1004800084E392E093838283CE01049695838483F0
:10049000CE01019697838683CE010296918780874D
:1004A0000E94700EEDB7FEB73A960FB6F894FEBFF5
:1004B0000FBEEDBF89818B3261F08C3220F48A321D
:1004C00009F059C028C08D32A9F08F3209F053C00D
:1004D0003CC000D00F928BE392E0ADB7BEB712964E
:1004E0009C938E9311978C819D812A813B81820FF1
:1004F000931F26C000D00F928BE392E0EDB7FEB7BA
:10050000928381838C819D812A813B81821B930B05
:10051000948383832AC000D00F928BE392E0ADB71F
:10052000BEB712969C938E9311974C815D812A8160
:100530003B81429FC001439F900D529F900D11241B
:1005400014969C938E93139710C000D00F928BE358
:1005500092E0EDB7FEB7928381838C819D816A81A1
:100560007B810E94B10B748363830E94FA0D0F900C
:100570000F900F900F900F900F900F900F900F9083
:10058000DF91CF910895CF92DF92EF92FF920F9378
:100590001F93CF93DF93009741F0FC01208122232A
:1005A00021F00E943E0D8C0102C000ED17E0EE2408
:1005B000FF24C2E0D0E02DE0C22E22E0D22E17C0F0
:1005C000CE010E949601009789F00894E11CF11C6D
:1005D00000D00F92EDB7FEB7D282C182D483C3831D
:1005E0000E94FA0D0F900F900F900F9021960C170C
:1005F0001D0734F700D00F9287E292E0EDB7FEB707
:1006000092838183F482E3820E94FA0D0F900F900F
:100610000F900F90DF91CF911F910F91FF90EF906E
:10062000DF90CF9008951092E9041092E8041092A0
:10063000E7041092E6041092EB041092EA04109280
:10064000A5041092A4040895482F2091EA04309143
:10065000EB042F5F3F4FC90160E470E00E94B10BD3
:100660009C018091A4049091A5042817390759F0A2
:100670003093EB042093EA0424513B4FF90140836B
:1006800081E090E0089580E090E008958091A404D6
:100690009091A5042091EA043091EB0428173907C2
:1006A00079F0019660E470E00E94B10B9093A5048C
:1006B0008093A40484519B4FFC01808190E00895B5
:1006C00080E090E00895482F2091E8043091E904FB
:1006D0002F5F3F4FC90160E470E00E94B10B9C01A5
:1006E0008091E6049091E7042817390759F0309378
:1006F000E9042093E8042A553B4FF901408381E047
:1007000090E0089580E090E008958091E604909153
:10071000E7042091E8043091E9042817390779F0BB
:10072000019660E470E00E94B10B9093E70480931F
:10073000E6048A559B4FFC01808190E0089580E09B
:1007400090E008958EE090E00E940F0C0895EF92E3
:10075000FF920F931F93CF93DF93F82EE92E8B0117
:100760000E94A203EC01DC011296EF2DFE2D8AE01F
:1007700001900D928150E1F719830883E091F8030D
:10078000F091F903309729F4D093F903C093F8035B
:100790002FC040E050E020E030E001C0FD0180814A
:1007A0009181280F391F2017310734F4A485B585AE
:1007B000AF01109799F701C0DF014115510579F498
:1007C0008D919C911197801B910B11969C938E9308
:1007D000BD87AC87D093F903C093F80324C010976A
:1007E00051F4021B130B19830883FA01D587C487C0
:1007F0001D861C8618C08D919C911197B901681BAC
:10080000790B9801261B370B398328838D919C9196
:100810001197821B930B11969C938E93FA01D587A7
:10082000C487BD87AC87DF91CF911F910F91FF9057
:10083000EF900895EF92FF920F931F93CF93DF9362
:100840008AE090E00E940C0EC091F803D091F90369
:1008500000E010E080E4E82E82E0F82E20C08881DD
:100860009981080F191F00D000D0EDB7FEB731965F
:10087000ADB7BEB71296FC92EE9211979383828326
:10088000158304830E94FA0D0C84DD85C02D8DB77D
:100890009EB706960FB6F8949EBF0FBE8DBF2097E9
:1008A000F1F68AE090E00E940C0EDF91CF911F914B
:1008B0000F91FF90EF90089509C0FC0124853585C4
:1008C0003093F9032093F8030E94A50C8091F8035C
:1008D0009091F903009789F708950F931F93CF9391
:1008E000DF93CDB7DEB762970FB6F894DEBF0FBEC9
:1008F000CDBF0BE412E00F920F92EDB7FEB712835B
:1009000001830E94FA0D0F900F9040913105509194
:100910003205CE01019668E070E00E94A00D0097BC
:1009200061F0CE0101960E943E0DBC01009729F0B6
:10093000CE0109960E94A703DECF0E941A040E94EE
:100940005C0462960FB6F894DEBF0FBECDBFDF9198
:10095000CF911F910F9108951092B200E6EBF0E055
:10096000808180628083E0E7F0E080818160808325
:10097000E1EBF0E080818160808380818260808310
:10098000089510920104109200041092A304109292
:10099000A2040895CF93DF93482FE92F809100049C
:1009A00090910104C091A204D091A304019620E18A
:1009B00030E0B9010E94B10B8C179D0731F1809195
:1009C0000004909101040196B9010E94B10B90932B
:1009D0000104809300048091000490910104DC01E3
:1009E000AA0FBB1F63E0880F991F6A95E1F7A80F54
:1009F000B91FAE5FBB4FC42FDE2F8AE009900D9266
:100A00008150E1F781E090E002C080E090E0DF916A
:100A1000CF910895CF93DF930DC08C859D859093E2
:100A2000F9038093F803CE0102960E94CA04CE0116
:100A30000E94A50CC091F803D091F903209721F0F2
:100A400088819981009749F3DF91CF9108951F9292
:100A50000F920FB60F920BB60F9211242F933F9364
:100A60004F935F936F937F938F939F93AF93BF93B6
:100A7000EF93FF93E091F803F091F903309749F079
:100A800080819181019791838083009711F40E9466
:100A90000A05FF91EF91BF91AF919F918F917F9147
:100AA0006F915F914F913F912F910F900BBE0F90DF
:100AB0000FBE0F901F9018959C014091000450911B
:100AC00001048091A2049091A3044817590731F1C1
:100AD0008091A2049091A304019660E170E00E94CD
:100AE000B10B9093A3048093A2048091A2049091EF
:100AF000A304FC01EE0FFF1FA3E0880F991FAA9526
:100B0000E1F7E80FF91FD901EE5FFB4F8AE0019092
:100B10000D928150E1F781E090E0089580E090E04F
:100B200008951F920F920FB60F920BB60F921124D9
:100B30001F932F933F934F935F936F937F938F9365
:100B40009F93AF93BF93EF93FF93CF93DF93CDB773
:100B5000DEB72A97DEBFCDBF1091C6001B3161F40E
:100B60008091A3029091A40201968170907090935D
:100B7000A4028093A30224C0143069F01D3009F44C
:100B80001AE02091A3023091A4022115310519F039
:100B9000812F0E941E07812F0E942403143011F020
:100BA0001A3071F482E196E09A838983CE0103962C
:100BB0006FE472E00E946A0DCE0101960E94CA04A1
:100BC0002A96DEBFCDBFDF91CF91FF91EF91BF910C
:100BD000AF919F918F917F916F915F914F913F91D5
:100BE0002F911F910F900BBE0F900FBE0F901F9073
:100BF00018958091A4049091A5042091EA04309165
:100C0000EB048217930759F0019660E470E00E94AC
:100C1000B10B84519B4FFC01808190E0089580E0EE
:100C200090E00895AF92BF92CF92DF92EF92FF9241
:100C30000F931F93CF93DF93CDB7DEB7CA54D04045
:100C40000FB6F894DEBF0FBECDBF0E94F905009726
:100C500009F488C0CE010B960E94D40D009729F4A8
:100C600080E592E00E94130EFFCFCE010B9665E661
:100C700072E00E945C0D8C0180E090E065E672E01D
:100C80000E945C0D7C0180E090E065E672E00E94CD
:100C90005C0D5C0180E090E065E672E00E945C0D16
:100CA0006C010115110509F451C0C8016DE672E02F
:100CB0000E94610D009721F4C7010E94C30246C043
:100CC000C80163E772E00E94610D009729F48FE488
:100CD00092E00E94D9073AC0C8016AE772E00E9418
:100CE000610D009779F5E114F10419F480E892E0C0
:100CF0002BC0C7010E943E0D8C01C5016DE672E05C
:100D00000E94610D0097D9F483EC92E09A83898365
:100D1000CE010396C114D10411F0B60102C06FE4F4
:100D200072E00E946A0DF894C80160E071E00E94D0
:100D3000B10BCE0101960E94A703789407C088E802
:100D400092E002C080E992E00E94130E0F920F928F
:100D50008AE692E0EDB7FEB7928381830E94FA0D96
:100D60000F900F90C65BDF4F0FB6F894DEBF0FBE3B
:100D7000CDBFDF91CF911F910F91FF90EF90DF904A
:100D8000CF90BF90AF9008950E94F9050895CF933A
:100D9000C82F8A3019F48DE00E94C706F89480911C
:100DA0002C05882359F4C093C60081E080932C055C
:100DB0000AC0789486EF8A95F1F7F8948C2F0E94F8
:100DC00063030097B1F3789481E090E0CF910895A8
:100DD000F8940E94460378948823D1F3843011F06C
:100DE00090E008958FEF9FEF089588EA92E0909346
:100DF00032058093310586EB92E090933405809321
:100E0000330510922C050E9413031092C50087E051
:100E10008093C400E0ECF0E0808182608083E1ECAC
:100E2000F0E080818860808380818064808380811D
:100E3000806180838081806880830895CF93C82FEC
:100E40008A3019F48DE00E941E0780912C058823BA
:100E500031F4C093C60081E080932C0503C08C2F31
:100E60000E946303CF9108951F920F920FB60F92C5
:100E70000BB60F9211242F933F934F935F936F9371
:100E80007F938F939F93AF93BF93EF93FF930E94B2
:100E90008503882319F410922C0502C08093C600A4
:100EA000FF91EF91BF91AF919F918F917F916F9142
:100EB0005F914F913F912F910F900BBE0F900FBEFE
:100EC0000F901F9018951F920F920FB60F920BB6AE
:100ED0000F9211240F931F932F933F934F935F9380
:100EE0006F937F938F939F93AF93BF93EF93FF93F2
:100EF000CF93DF93CDB7DEB72897DEBFCDBF80910C
:100F0000780090917900EAE7F0E020812F77208344
:100F100000D000D0EDB7FEB731968E010F5F1F4FA6
:100F2000ADB7BEB712961C930E93119725EA32E027
:100F3000338322839370958384830E94410E8DB7FF
:100F40009EB706960FB6F8949EBF0FBE8DBFC80120
:100F50000E94D9072896DEBFCDBFDF91CF91FF91C8
:100F6000EF91BF91AF919F918F917F916F915F9121
:100F70004F913F912F911F910F910F900BBE0F90AA
:100F80000FBE0F901F901895809880E880937C008A
:100F90000895EAE7F0E08081806880838DED90E03D
:100FA0000197F1F7808188608083808180648083ED
:100FB0000895FC012081222319F50E94C90781E0D0
:100FC00090E09093FB038093FA038091FA03909151
:100FD000FB030097D1F700D00F9284EC92E0EDB7BD
:100FE000FEB7928381838091FC039091FD039483EB
:100FF00083830E94FA0D0F900F900F900F90089529
:101000000E943E0D9C01B901882777FD8095982F9D
:101010000E942A0929E030EF4CE85AE30E9429088F
:1010200020E030E04AE754E40E9429080E94A10928
:10103000DC01CB01845F91406AE070E00E94B10B5B
:101040007093FD036093FC031092FB031092FA036C
:101050000895A0E2B0E0EFE2F8E00C94DA0BDC01D6
:10106000CB018D839E83AF83B88729833A834B83DB
:101070005C83CE010596BE01675E7F4F0E941C0B0C
:10108000CE010196BE016F5E7F4F0E941C0B998DB1
:10109000923078F089898230C0F0943019F482302F
:1010A00041F4CAC0843019F4923079F4C5C092304A
:1010B00051F481E02A8D9A89291709F480E08A8FFA
:1010C000CE014996BBC0823051F481E02A8D9A89C5
:1010D000291709F480E08A8BCE014196AFC04D8C70
:1010E0005E8C6F8C78A00D891E892F89388DE0E287
:1010F000F0E040E050E0BA01882499245401CC2467
:10110000DD247601C201817090700097D1F0C00E8D
:10111000D11EE21EF31EDB01CA01880D991DAA1D16
:10112000BB1D41E050E060E070E0C016D106E20671
:10113000F30618F040E050E0BA01480F591F6A1F4B
:101140007B1F880C991CAA1CBB1C37FF08C081E0C0
:1011500090E0A0E0B0E0882A992AAA2ABB2A000FD2
:10116000111F221F331F7694679457944794319729
:1011700049F68B8D9C8D2B893C89820F931F02969B
:101180009C878B8781E02A8D9A89291709F480E052
:101190008A872B853C8517C0CA01817090700097A3
:1011A00061F0F694E794D794C79480E090E0A0E0D3
:1011B000B0E8C82AD92AEA2AFB2A76956795579576
:1011C00047952F5F3F4F77FDE7CFC9010BC0440F15
:1011D000551F661F771FF7FC4160CC0CDD1CEE1C11
:1011E000FF1C01974030A0E05A07A0E06A07A0E486
:1011F0007A0768F38B879C87DB01CA018F77907031
:10120000A070B07080349105A105B10561F447FD6F
:101210000AC0C114D104E104F10429F0405C5F4F1D
:101220006F4F7F4F40784D875E876F87788B83E065
:101230008987CE01099602C087EE92E00E94450A96
:10124000462F572F682F792FCB01BA01A096E0E1E6
:101250000C94F60BCF92DF92EF92FF92CF93DF9335
:10126000CDB7DEB728970FB6F894DEBF0FBECDBF5F
:101270006B017C0183E08983D701C6018827B7FD14
:1012800083959927AA27BB27282F8A83C114D104C5
:10129000E104F10419F482E0898335C08EE190E025
:1012A0009C838B83222389F080E0C81680E0D806D7
:1012B00080E0E80680E8F80659F1F094E094D094D4
:1012C000C094C11CD11CE11CF11CCD82DE82EF82D6
:1012D000F886C701B6010E94F2090197181619068F
:1012E00094F4082E04C0CC0CDD1CEE1CFF1C0A94E8
:1012F000D2F7CD82DE82EF82F8862EE130E0281B25
:10130000390B3C832B83CE0101960E94450A04C011
:1013100060E070E080E09FEC382F292F862F972F18
:10132000A32FB22FBC01CD0128960FB6F894DEBFD3
:101330000FBECDBFDF91CF91FF90EF90DF90CF90A8
:101340000895ACE0B0E0E7EAF9E00C94E60BDC01CC
:10135000CB0189839A83AB83BC83CE010196BE0106
:101360006B5F7F4F0E941C0B8D81823069F1823050
:1013700058F1843039F02F81388537FD25C02F3161
:10138000310544F08E81882319F100E010E020E05F
:1013900030E822C08EE190E0821B930B09851A850C
:1013A0002B853C8504C036952795179507958A951A
:1013B000D2F78E81882381F0309520951095019584
:1013C0001F4F2F4F3F4F08C000E010E0980104C0AE
:1013D0000FEF1FEF2FEF3FE7B801C9012C96E4E0B4
:1013E0000C94020CCF92DF92EF92FF920F931F9317
:1013F0008B019C01003080E0180781E0280780E025
:10140000380750F40F3F11052105310509F088F424
:1014100080E090E0DC0116C00030E0E01E07E0E074
:101420002E07E1E03E0750F480E190E0A0E0B0E05C
:1014300009C088E090E0A0E0B0E004C088E190E05E
:10144000A0E0B0E040E250E060E070E0481B590BE3
:101450006A0B7B0B6801790104C0F694E794D7947A
:10146000C7948A95D2F7D701C60181519D4FFC01DF
:101470008081481B510961097109CA011F910F91AF
:10148000FF90EF90DF90CF900895CF92DF92EF9290
:10149000FF920F931F93DC0114964D915D916D9116
:1014A0007C9117971196EC9111978C91823020F4D2
:1014B00060618FEF90E0A5C0843009F49DC0823058
:1014C00009F494C0411551056105710509F491C0F5
:1014D00012968D919C9113972FEF823892070CF002
:1014E00059C022E83FEF281B390B2A31310564F53A
:1014F0006A017B01022E04C0F694E794D794C79446
:101500000A94D2F781E090E0A0E0B0E004C0880F38
:10151000991FAA1FBB1F2A95D2F70197A109B109EC
:1015200084239523A623B72341E050E060E070E0D8
:101530000097A105B10519F440E050E0BA014C292B
:101540005D296E297F2903C040E050E0BA01DB012C
:10155000CA018F779070A070B07080349105A1059A
:10156000B10539F447FF09C0405C5F4F6F4F7F4FB3
:1015700004C0415C5F4F6F4F7F4F81E090E040308F
:1015800020E0520720E0620720E4720738F580E08F
:1015900090E024C0803891057CF58A019B010F778B
:1015A000107020703070003411052105310539F4B8
:1015B00047FF09C0405C5F4F6F4F7F4F04C0415CE5
:1015C0005F4F6F4F7F4F77FD03C081589F4F06C01D
:1015D000769567955795479580589F4F97E07695F4
:1015E0006795579547959A95D1F70BC080E090E0A5
:1015F00005C080E090E005C08FEF90E040E050E053
:10160000BA01982F979599279795A62FAF77E795C9
:10161000EE27E79586953A2F392B282F2E2B842FEE
:10162000952FA32FB22FBC01CD011F910F91FF90D9
:10163000EF90DF90CF900895DC01FB014C91119663
:101640005C91119712968C911297682F6F7770E0CA
:10165000982F991F9927991F13962C911397822FD2
:10166000880F892B90E0221F2227221F21830097B9
:1016700039F5411551056105710511F482E029C064
:1016800082E89FEF9383828327E0440F551F661FF4
:10169000771F2A95D1F783E0808309C0440F551F37
:1016A000661F771F828193810197938382834030E5
:1016B00080E0580780E0680780E4780778F320C06E
:1016C0008F3F910579F4411551056105710519F4B4
:1016D00084E08083089564FF03C081E0808310C0AC
:1016E00010820EC08F5790409383828383E0808363
:1016F00087E0440F551F661F771F8A95D1F77064E6
:1017000044835583668377830895CF93DF93CDB762
:10171000DEB72A970FB6F894DEBF0FBECDBF0E948A
:10172000F5060E94C1040E94AC040E94C4070F92F7
:101730000F928AE092E0EDB7FEB7928381830E9418
:10174000FA0D0F900F90F894CE0101960E945C055F
:1017500078940097C1F3E981FA81CE010396199537
:10176000F2CF97FB092E07260AD077FD04D00CD0C4
:1017700006D000201AF4709561957F4F0895F6F712
:10178000909581959F4F0895AA1BBB1B51E107C0FF
:10179000AA1FBB1FA617B70710F0A61BB70B881F01
:1017A000991F5A95A9F780959095BC01CD01089590
:1017B0002F923F924F925F926F927F928F929F9261
:1017C000AF92BF92CF92DF92EF92FF920F931F934F
:1017D000CF93DF93CDB7DEB7CA1BDB0B0FB6F89400
:1017E000DEBF0FBECDBF19942A88398848885F8430
:1017F0006E847D848C849B84AA84B984C884DF80B1
:10180000EE80FD800C811B81AA81B981CE0FD11D94
:101810000FB6F894DEBF0FBECDBFED010895CF9394
:10182000DF93AC018230910510F442E050E0E0918A
:101830002F05F091300520E030E0A0E0B0E024C0BA
:101840008081918184179507D0F08417950771F4F2
:1018500082819381109729F013969C938E9312970F
:101860002CC09093300580932F0527C0211531059A
:1018700019F08217930718F49C01BD01EF019281C2
:101880008381DF01E92FF82F3097D1F6211531053B
:10189000F9F0C901841B950B8430910580F48A818D
:1018A0009B816115710521F0FB019383828304C044
:1018B0009093300580932F05FE01329642C0FE01C1
:1018C000E80FF91F4193519302979983888339C098
:1018D00080912D0590912E05009741F48091F103A0
:1018E0009091F20390932E0580932D052091EF03A4
:1018F0003091F0032115310541F42DB73EB78091A9
:10190000F3039091F403281B390BE0912D05F0911E
:101910002E05E217F30798F42E1B3F0B241735070B
:1019200070F0CA0102962817390748F08E0F9F1FE2
:1019300090932E0580932D054193519302C0E0E0D2
:10194000F0E0CF01DF91CF9108950F931F93CF93D4
:10195000DF939C01009709F48CC0DC011297139669
:101960001C921E92129760912F057091300561159F
:10197000710589F48D919C911197820F931F20918D
:101980002D0530912E052817390769F5B0932E05DE
:10199000A0932D056EC0FB0140E050E001C0FC01AA
:1019A000EA17FB0730F482819381AF010097B9F702
:1019B0001FC0E9012297FB83EA8308811981C901CD
:1019C000800F911F8E179F0759F480819181800F9E
:1019D000911F029699838883828193819B838A8356
:1019E0004115510529F4B0933005A0932F0541C04E
:1019F000FA01B383A283C191D191EC0FFD1FAE1701
:101A0000BF0781F4F901929182918C0F9D1F02967C
:101A1000DA0111969C938E938281938113969C9305
:101A20008E931297E0E0F0E002C0FB01BC01DB0105
:101A300012968D919C9113970097B9F7CB0102965E
:101A40002D913C911197820F931F20912D0530917C
:101A50002E052817390769F4309729F410923005BC
:101A600010922F0502C01382128270932E0560938C
:101A70002D05DF91CF911F910F910895FC018827CB
:101A80009927E89421912032E9F3293010F02E3083
:101A9000C8F32B3241F02D3239F4689404C00E940F
:101AA000980D820F911D219120532A30C0F31EF40E
:101AB000909581959F4F08954EEF53E00E94710DD0
:101AC0000895FB01DC018D91019080190110D9F37B
:101AD000990B0895FB01DC0101900D920020E1F7C4
:101AE0000895FA01A191B081009719F41097E1F0DF
:101AF000CD01DC01CD010D90002011F4C00113C017
:101B0000FB012191222319F02015D9F7F3CFFB0116
:101B10002191201519F41E92119606C02223C1F7B7
:101B20000D900020A1F7D001FA01A193B083089590
:101B30007AE0979F902D879F802D910D1124089515
:101B4000CF92DF92EF92FF920F931F93CF93DF9389
:101B50008C016A01FA01838180FF1AC016161706EC
:101B6000BCF47B01E8010EC0C6010E949313FFEF95
:101B70008F3F9F0769F089930894E108F1088A3044
:101B8000910521F021E0E216F10471F7188202C0FC
:101B900000E010E0C801DF91CF911F910F91FF90FD
:101BA000EF90DF90CF9008950F931F93CF93DF9323
:101BB0008C01E0913105F0913205838180FF12C0E4
:101BC000E80180913105909132050E9493132FEF27
:101BD0008F3F920739F089938A30910591F72197C9
:101BE000188202C000E010E0C801DF91CF911F9180
:101BF0000F910895CF93DF93CDB7DEB7FE013696F0
:101C0000619171918091330590913405AF010E94EB
:101C1000920EDF91CF910895609133057091340554
:101C20000E94D31308950F931F93CF93DF938C01DA
:101C3000E0913305F0913405838181FF1AC0C0E043
:101C4000D0E005C01995009711F0CFEFDFEFF80154
:101C500081918F016091330570913405DB011896F5
:101C6000ED91FC911997882369F78AE019950097FF
:101C700011F0CFEFDFEFCE01DF91CF911F910F91E8
:101C800008950F931F93CF93DF93CDB7DEB72E97B1
:101C90000FB6F894DEBF0FBECDBF0E891F8986E058
:101CA0008C831A8309838FEF9FE79E838D83AE0118
:101CB000465E5F4FCE010196688D798D0E94920E2F
:101CC000EF81F885E00FF11F10822E960FB6F89481
:101CD000DEBF0FBECDBFDF91CF911F910F91089551
:101CE000CF93DF93CDB7DEB72E970FB6F894DEBF54
:101CF0000FBECDBF85E08C838C899D899A838983B3
:101D0000AE01485E5F4FCE0101966E897F890E94C9
:101D10003D122E960FB6F894DEBF0FBECDBFDF91F9
:101D2000CF9108952F923F924F925F926F927F9240
:101D30008F929F92AF92BF92CF92DF92EF92FF92DB
:101D40000F931F93CF93DF93CDB7DEB72D970FB6C9
:101D5000F894DEBF0FBECDBF3C017D876C875A0172
:101D6000FC0117821682838181FFC8C12E0108946D
:101D7000411C511CF3019381EC85FD8593FD8591F8
:101D800093FF8191FD87EC87882309F4B3C18532E5
:101D900041F493FD859193FF8191FD87EC87853216
:101DA00029F490E0B3010E94D313E4CFFF24EE2482
:101DB00010E01032B0F48B3269F08C3228F48032AB
:101DC00051F0833271F40BC08D3239F0803349F415
:101DD00011602CC01260146029C0186027C0106107
:101DE00025C017FD2EC0282F20532A3098F416FF47
:101DF00008C08F2D880FF82EFF0CFF0CF80EF20E86
:101E000015C08E2D880FE82EEE0CEE0CE80EE20EBB
:101E100010620CC08E3221F416FD6CC1106406C035
:101E20008C3611F4106802C0883659F4EC85FD85B3
:101E300093FD859193FF8191FD87EC87882309F0BD
:101E4000B8CF982F9554933018F09052933038F4BF
:101E500024E030E0A20EB31E3FE339830FC0833687
:101E600031F0833781F0833509F05AC022C0F50183
:101E70008081898322E030E0A20EB31E21E0C22ED1
:101E8000D12C420114C092E0292E312C2A0C3B1C8B
:101E9000F5018080918016FF03C06F2D70E002C0B5
:101EA0006FEF7FEFC4010E9488136C0151011F770F
:101EB00015C082E0282E312C2A0C3B1CF5018080B5
:101EC000918016FF03C06F2D70E002C06FEF7FEFAF
:101ED000C4010E947D136C011068510113FD1CC0E8
:101EE00006C080E290E0B3010E94D313EA948E2DE5
:101EF00090E0C816D906A8F30FC0F40117FD85912C
:101F000017FF81914F0190E0B3010E94D313E110BC
:101F1000EA940894C108D108C114D10471F7E7C04C
:101F2000843611F0893651F5F50117FF07C080811D
:101F30009181A281B38124E030E008C08081918149
:101F4000AA2797FDA095BA2F22E030E0A20EB31E7B
:101F5000012F0F76B7FF08C0B095A0959095819599
:101F60009F4FAF4FBF4F0068BC01CD01A2012AE0D7
:101F700030E00E941C14D82ED4183FC0853721F4BD
:101F80001F7E2AE030E020C0197F8F36A9F080370D
:101F900020F4883509F0AEC00BC0803721F08837B7
:101FA00009F0A8C001C0106114FF09C0146007C087
:101FB00014FF08C0166006C028E030E005C020E12C
:101FC00030E002C020E132E0F50117FF07C0608178
:101FD00071818281938144E050E006C0608171810B
:101FE00080E090E042E050E0A40EB51EA2010E9405
:101FF0001C14D82ED418012F0F7706FF09C00E7FAE
:10200000DF1430F404FF06C002FD04C00F7E02C0DE
:102010001D2D01C01F2D802F90E004FF0CC0FE017C
:10202000ED0DF11D2081203311F4097E09C002FF5E
:1020300006C01E5F05C086789070009709F01F5F8C
:10204000802E992403FD12C000FF0DC0FD2C1E152B
:1020500050F4FE0CF11A1E2D06C080E290E0B30190
:102060000E94D3131F5F1E15C0F304C01E1510F489
:10207000E11A01C0EE2484FE0FC080E390E0B301BA
:102080000E94D31382FE1FC081FE03C088E590E04A
:1020900010C088E790E00DC0C4018678907000976A
:1020A00091F081FC02C080E201C08BE207FD8DE26D
:1020B00090E0B3010E94D31306C080E390E0B30127
:1020C0000E94D313FA94DF14C0F3DA94F201ED0DF9
:1020D000F11D808190E0B3010E94D313DD20A9F7A8
:1020E00006C080E290E0B3010E94D313EA94EE2090
:1020F000C1F740CEF3018681978102C08FEF9FEF39
:102100002D960FB6F894DEBF0FBECDBFDF91CF91F5
:102110001F910F91FF90EF90DF90CF90BF90AF9005
:102120009F908F907F906F905F904F903F902F90F7
:10213000089520FD09C0FC0123FD05C022FF02C057
:1021400073836283518340830895CF92DF92EF922D
:10215000FF926B017C0144FD10C046FD10C0D6010A
:10216000F701AA0FBB1FEE1FFF1F1094D1F7CA0E75
:10217000DB1EEE1EFF1E81E003C083E001C084E091
:10218000CC0CDD1CEE1CFF1C8150D1F7C20ED11C03
:10219000E11CF11CB601C701FF90EF90DF90CF90DA
:1021A00008950F931F93CF93DF938C01C8010E9472
:1021B0009313EC0197FD08C00E946A130097B1F7D2
:1021C000CE01B8010E94FF13CE01DF91CF911F9184
:1021D0000F910895AF92BF92CF92DF92EF92FF924C
:1021E0000F931F93CF93DF938C01D62F5A01C22FE9
:1021F0000E9493138B3219F08D3249F4C068D1508C
:1022000009F461C0C8010E94931397FD5CC0CD7FA3
:102210002C2F2073D1F48033C1F4D15009F43EC087
:10222000C8010E94931397FD39C0C260883711F02E
:10223000883549F4C064D15089F1C8010E949313D4
:1022400097FF03C02BC0C6FFC061CC24DD247601FC
:10225000282F2053283080F0C4FD09C02A3060F0B8
:10226000C6FF05C02F7D322F3151363020F0B80126
:102270000E94FF1310C02750C701B6014C2F0E94C7
:10228000A5106B017C01C260D15059F0C8010E94B9
:10229000931397FFDDCFC1FD04C015C0CC24DD240E
:1022A0007601C7FF08C0F094E094D094C094C11C9C
:1022B000D11CE11CF11CC501B701A6012C2F0E9405
:1022C000991081E001C080E0DF91CF911F910F91C3
:1022D000FF90EF90DF90CF90BF90AF9008954F9216
:1022E0005F926F927F928F929F92AF92BF92CF92A6
:1022F000DF92EF92FF920F931F93CF93DF93CDB7AF
:10230000DEB7A0970FB6F894DEBF0FBECDBF5C015D
:10231000062F7A016901FE01319680E2DF011D92EC
:102320008A95E9F7D50113961C91139760E070E048
:1023300020E040E030E04F0181E0682E712CF60192
:1023400013FD559113FF51916F01552309F47BC083
:102350005E3519F46115710549F1832F90E08617F8
:1023600097073CF45D3551F15D3219F4442301F1D6
:1023700003C0442309F4252F852F869586958695DD
:10238000F401E80FF11D852F8770230102C0440C72
:10239000551C8A95E2F7808184298083521751F079
:1023A000521710F45F5FE8CF5150E6CF31E003C021
:1023B00041E001C040E06F5F7F4FC1CF442319F07F
:1023C0008E8180628E83332351F0FE013196CE01DF
:1023D0008196208120952193E817F907D1F711E024
:1023E00001C010E0C5010E9493139C0197FD23C01A
:1023F000869586958695E1E0F0E0EC0FFD1FE80FED
:10240000F11D408150E0C9018770907002C0559560
:1024100047958A95E2F740FD05C0C901B5010E94C4
:10242000FF1309C0E114F10419F0D7012D937D01C8
:102430000150B9F602C0112331F4E114F10429F07E
:10244000F701108202C0CC24DD24C601A0960FB68D
:10245000F894DEBF0FBECDBFDF91CF911F910F91DA
:10246000FF90EF90DF90CF90BF90AF909F908F90B4
:102470007F906F905F904F9008955F926F927F92E0
:102480008F929F92AF92BF92CF92DF92EF92FF9284
:102490000F931F93CF93DF930F92CDB7DEB77C01DD
:1024A0005B013A01FC01178216829924EFC0812F4B
:1024B00090E00E946A13009721F0C7010E94D1109A
:1024C000E5C0153241F4F50103FD359103FF31916B
:1024D0005F01353261F4C7010E94931397FDE2C09A
:1024E000181709F4D3C0B7010E94FF13DDC03A32B8
:1024F00041F403FD359103FF31915F01552453945D
:1025000001C05524882410C0F2E05F2A682D70E0D5
:1025100080E090E040E20E94A510862EF50103FDC8
:10252000359103FF31915F01232F20532A3060F34F
:1025300051FE03C0882019F4B7C088248A94383625
:1025400019F03C3699F40AC0F50103FD359103FFFB
:1025500031915F01383651F4F8E05F2A44E0542AA3
:10256000F50103FD359103FF31915F01332309F438
:102570009BC084EE90E0632F70E039830E94721359
:102580003981009709F490C0852D50FC08C0F301F3
:102590000081118142E050E0640E751E02C000E02F
:1025A00010E03E3651F4F7014681578160E070E05B
:1025B000C801252D0E94991069C0333691F481FD20
:1025C00002C088248394C7010E94931397FD6AC0B8
:1025D0000115110519F0F80181938F018A9499F77B
:1025E00053C0C7013B3551F4682DA80195010E94E5
:1025F0006F115C01009709F047C041C039830E9408
:10260000D110398197FD4EC03F3661F1303728F443
:10261000343629F1393649F52AC0333719F03537C0
:1026200021F51DC0C7010E9493136C0197FD11C0D5
:102630000E946A13009729F0C601B7010E94FF1398
:1026400008C00115110519F0F801C1928F018A9493
:1026500049F701151105C1F0F801108215C0F0E22B
:102660005F2A05C040E1542A02C050E4552AC70140
:10267000682DA801252D0E94EA10882329F4F7016E
:102680008381807379F410C050FE9394F701038125
:10269000F50103FD159103FF11915F01112309F06D
:1026A00006CF02C0992019F0892D90E002C08FEF6B
:1026B0009FEF0F90DF91CF911F910F91FF90EF90BF
:1026C000DF90CF90BF90AF909F908F907F906F9052
:1026D0005F90089591110EC1803219F08950855094
:1026E000D0F70895FC010590061621F00020D9F7D7
:1026F000C00108953197CF010895FC010590615004
:1027000070400110D8F7809590958E0F9F1F089507
:10271000FC016150704001900110D8F780959095B0
:102720008E0F9F1F0895CF93DF93EC012B8120FF25
:1027300035C026FF09C02F7B2B838E819F81019698
:102740009F838E838A8128C022FF0FC0E881F98190
:102750008081992787FD9095009719F420622B833B
:102760001DC03196F983E88311C0EA85FB85CE014F
:10277000199597FF0BC02B813FEF8F3F930711F403
:1027800080E101C080E2822B8B8308C02E813F81D3
:102790002F5F3F4F3F832E8390E002C08FEF9FEF6C
:1027A000DF91CF9108950F931F93CF93DF938C0107
:1027B000EB018B8181FF1BC082FF0DC02E813F8109
:1027C0008C819D812817390764F4E881F981019390
:1027D000F983E88306C0E885F985802F199500976D
:1027E00031F48E819F8101969F838E8302C00FEF0B
:1027F0001FEFC801DF91CF911F910F910895FB0149
:10280000238120FF13C026FD11C03FEF8F3F9307A8
:1028100081F08283922F90649F7D938326813781FC
:10282000215030403783268390E008958FEF9FEF4B
:1028300008958FEF9FEF0895FA01AA27283051F1EC
:10284000203181F1E8946F936E7F6E5F7F4F8F4FE1
:102850009F4FAF4FB1E03ED0B4E03CD0670F781F40
:10286000891F9A1FA11D680F791F8A1F911DA11D25
:102870006A0F711D811D911DA11D20D009F468945E
:102880003F912AE0269F11243019305D3193DEF606
:10289000CF010895462F4770405D4193B3E00FD0BC
:1028A000C9F7F6CF462F4F70405D4A3318F0495DA7
:1028B00031FD4052419302D0A9F7EACFB4E0A6958A
:1028C0009795879577956795BA95C9F700976105AC
:1028D000710508959B01AC010A2E06945795479502
:1028E00037952795BA95C9F7620F731F841F951FF7
:0E28F000A01D0895992788270895F894FFCF1A
:1028FE002D2D3E256320003E20002420002564203F
:10290E0069732061207072696D65206E756D6265E8
:10291E0072202121210A00636F756E743D25640AB1
:10292E0000256400256425632564002564200A00C3
:10293E002D2D3E25642825642920003E3E200000D2
:10294E006C6F676F75742C20676F6F64206279658A
:10295E00202121210020090A0D0024200070726917
:10296E006D65007463313034370074696D657200C3
:10297E002121212D323232002121212D33333300FA
:10298E00556E6B6E6F776E20636F6D6D616E642E1C
:10299E002E2E000100256400000000010000000042
:1029AE000000E80600000000000200000000C7065C
:1029BE000000000043757272656E742074656D7050
:1029CE006572617475726520697320256420646573
:1029DE00677265652E0A000000000000000000000E
:1029EE0001020203030303040404040404040405A3
:1029FE000505050505050505050505050505050678
:102A0E000606060606060606060606060606060658
:102A1E000606060606060606060606060606060747
:102A2E000707070707070707070707070707070728
:102A3E000707070707070707070707070707070718
:102A4E000707070707070707070707070707070708
:102A5E0007070707070707070707070707070708F7
:102A6E0008080808080808080808080808080808D8
:102A7E0008080808080808080808080808080808C8
:102A8E0008080808080808080808080808080808B8
:102A9E0008080808080808080808080808080808A8
:102AAE000808080808080808080808080808080898
:102ABE000808080808080808080808080808080888
:102ACE000808080808080808080808080808080878
:102ADE000808080808080808080808080808080070
:062AEE0000370520000086
:00000001FF
