:100000000C9472000C9494000C9494000C94940042
:100010000C9494000C9494000C9494000C94940010
:100020000C9494000C9494000C9494000C94940000
:100030000C9494000C9494000C9494000C949400F0
:100040000C9494000C9494000C9494000C949400E0
:100050000C9494000C9494000C9494000C949400D0
:100060000C9494000C9494000C9494000C949400C0
:100070000C9494000C9494000C9494000C949400B0
:100080000C9494000C9494000C9494000C949400A0
:100090000C9494000C9494000C9494000C94940090
:1000A0000C9494000C9494000C9494000C94940080
:1000B0000C9494000C9494000C9494000C94940070
:1000C0000C9494000C9494000C9494000C94940060
:1000D0000C9494000C9494000C9494000C94940050
:1000E0000C94940011241FBECFEFD1E2DEBFCDBF30
:1000F00000E00CBF12E0A0E0B2E0E4E8F1E000E0D4
:100100000BBF02C007900D92A030B107D9F71BBEFC
:1001100012E0A0E0B2E001C01D92A030B107E1F70B
:100120000E94B1000C94C0000C9400001092C50015
:1001300087E08093C400E0ECF0E0808182608083FF
:10014000E1ECF0E08081886080830895CF93C82F30
:100150008A3019F48DE00E94A600C093C600CF91AA
:1001600008950E949600C1E404C08C2F0E94A6004E
:10017000CF5FCB35D0F38AE00E94A600C1E4F5CF73
:04018000F894FFCF21
:00000001FF
